:100000000C9407040C944B040C944B040C944B0478
:100010000C944B040C944B040C944B040C944B0424
:100020000C944B040C944B040C9412290C94E4296A
:100030000C944B040C944B040C944B040C944B0404
:100040000C944B040C944B040C944B040C944B04F4
:100050000C944B040C949A230C944B040C944B0476
:100060000C944B040C944B040C944B040C944B04D4
:100070000C944B040C944B040C944B040C944B04C4
:100080000C944F0B0C944B040C944B040C944B04A9
:100090000C94FF0F0C944B040C944B040C944B04E5
:1000A0000C944B040C944B040C944B04E50BE80BA0
:1000B000EB0BEE0BF10BF40BF70BFA0BFD0B000C3B
:1000C000030CDA10DF10E710EF10F210F610FC103E
:1000D000041185118B11911197119D11A311A91173
:1000E000AF11B411B911BE11C311C811CD11D21184
:1000F000D811E012E612EA12ED12F112F512F9121D
:10010000FD12021306130A130E13111315131913FC
:100110001D13211326135C1A5C1A961A961AD51A07
:10012000201C201C201CF71A201C9E1B9E1B141C2C
:10013000201C201C1B1CAB1BAB1BAB1BAB1BAB1B32
:10014000AB1BAB1BAB1BAB1BAB1BAB1BAB1BAB1B7F
:10015000AB1BAB1BAB1BBD1BCD1BD41BDB1BE51BA8
:10016000B01CB01CC31CC31CB91CC31CC31CC31CC7
:10017000B01CB01CBF1CC31CC31CBF1C492A702A66
:100180005E2B702A5E2BB82ADB2A5E2B312B402B8C
:1001900011100F0E0D0C0B0A091213141516070679
:1001A0000504030201001B1C1D1E1F2008323130F4
:1001B0002F2E2D363738393A3B1734332928272646
:1001C000253F4041423C3D3E352C2B2AFFFFFF247A
:1001D000FF43444546473A814681508B599D60B55F
:1001E00065D069EE6DFF80F73AFF40FF46FF4BFF99
:1001F00050FF55FF59FF5DFF60FF35FF30FF2BFFBC
:1002000027FF22FF20FFFFFFFFFFFFFF308B279D0F
:1002100020B51BD017EE13FFFFFFFFFFFFFFBCFF52
:10022000B783AD8FA5A39FBC9AD8ACFCAAFFA5FF4E
:100230008009802E80528077809B80C096F493FF47
:10024000A1FF001B00400065008900AEFFE9E4C982
:10025000EBFFEDFFC380CE88D798DEAFCDEAD1FFAC
:10026000D6FFDBFFDFFF78106810581048103810F9
:100270002810181004100420800070006000500046
:10028000400030002000100000009000A000B000EE
:10029000C000D800E000FFFFFFFFFFFF88109810AC
:1002A000A810B810C810DC10FFFFFFFFFFFF66406A
:1002B000643054304430343024303C402B401740BC
:1002C0006C205C204C203C202C201C201430023060
:1002D00003407C208C209C20AC20BC20D620B43055
:1002E000D230E030743084309430A4309040A1405B
:1002F000B540C940DD4000000000000101010101DE
:1003000001010101020202020202020202030303CE
:10031000030303030304040404040405050505059D
:100320000606060606070707070808080809090958
:100330000A0A0A0A0B0B0B0C0C0C0D0D0D0E0E0FFE
:100340000F0F10101111111212131314141515168A
:10035000161717181819191A1A1B1C1C1D1D1E1FF9
:100360001F20202122222324252526272728292A49
:100370002B2B2C2D2E2F2F30313233343536363770
:1003800038393A3B3C3D3E3F404142434446474872
:10039000494A4B4C4D4F50515253555657585A5B42
:1003A0005C5E5F606263646667696A6C6D6E7071E3
:1003B00073747678797B7C7E8081838486888A8B4F
:1003C0008D8F91929496989A9B9D9FA1A3A5A7A982
:1003D000ABADAFB1B3B5B7B9BBBDBFC1C4C6C8CA79
:1003E000CCCFD1D3D6D8DADCDFE1E4E6E8EBEDF030
:1003F000F2F5F7FAFCFF545556464748494A4B84F4
:100400008586878889797A7B5C5D5E4E4F50515234
:10041000538C8D8E8F909181828344453536373849
:10042000393A3B9495969798999A8A8B4C4D3D3ED4
:100430003F404142439C9D9E9FA0A1A292933424A1
:1004400025262728292A2BA4A5A6A7A8A9AAAB9BBD
:100450003C2C2D2E2F30313233ACADAEAFB0B1B21B
:10046000B3A329001E001F0020002100220023004A
:1004700024002500260027002D002E002A002B0036
:1004800014001A000800150017001C0018000C00CA
:10049000120013002F003000310039000400160054
:1004A000070009000A000B000D000E000F003300CA
:1004B000340028000000E10000001D001B000600C1
:1004C0001900050011001000360037003800E50063
:1004D0000000E000E300E200000000000000000077
:1004E0002C0000000000E6000E5F0F5FE400350006
:1004F0003A003B003C003D003E003F004000410010
:1005000042004300440045004C0039000100520005
:100510000100010001000100010049000100460046
:100520004700480001000100500051004F00010049
:10053000010001000100010001004A004B00010020
:1005400001000100010001000100010001000100A3
:10055000AA00A900A8004D004E0001000100010002
:100560000100010001000100010001000100010083
:100570000100010001000100010001000100010073
:100580000100010001000100010001000100010063
:100590000100010001000100010001000100010053
:1005A0000100010001000100010001000100010043
:1005B0000100010001000100010001000100010033
:1005C0000100010001000100010001000100010023
:1005D0000100010001000100010001000100010013
:1005E0000100010001000100010001000100010003
:1005F00001000100010001000100010001000100F3
:100600000100010001000100035F025F075F065F58
:100610000B5F0A5F0100010001000100015F005F44
:100620000100010001000100095F085F0D5F0C5F20
:100630000100010001000100055F045F01000100ED
:1006400001000100010001000100010001000100A2
:100650000100010001000100010001000100010092
:100660000100010001000100010001000100010082
:100670000100010001000100010001000100010072
:100680000100010001000100010001000100010062
:1006900001000E035A00650061006C003600300056
:1006A00000000E035A00650061006C00500043001A
:1006B00000000403090409027400040100A0FA09FF
:1006C0000400000103010100092111010001224081
:1006D000000705810308000A090402000103000065
:1006E00000092111010001223600070582030800DC
:1006F0000A090401000203000000092111010001A0
:1007000022220007058303200001070504032000BF
:100710000109040300010300000009211101000187
:100720002239000705850320000112011001000095
:100730000008EDFE606001000102000105010906EC
:10074000A101050719E029E71500250195087501A4
:100750008102050819012905950575019102950188
:10076000750391010507190029F71500250195F872
:1007700075018102C00660FF0961A10109621500CF
:1007800026FF009520750881020963150026FF00E9
:10079000952075089102C005010980A10185021606
:1007A00001002603001A81002A830075109501813B
:1007B00000C0050C0901A1018503160100269C0259
:1007C0001A01002A9C02751095018100C0050109DB
:1007D00006A101050719E029E7150025019508750F
:1007E0000181029501750881010508190129059506
:1007F00005750191029501750391010507190029FD
:10080000FF150026FF00950675088100C000112421
:100810001FBECFEFDAE0DEBFCDBF04B603FE24C0BB
:100820008091840490918504A0918604B0918704FE
:100830008730904BA740B04BB9F4109284041092CB
:100840008504109286041092870414BE84B7877FB3
:1008500084BF88E10FB6F894809360001092600026
:100860000FBEE0E0F8E3099511E0A0E0B1E0E6E9B1
:10087000F9E502C005900D92AA3CB107D9F714E042
:10088000AAECB1E001C01D92A438B107E1F70E94C3
:10089000CE250C94C92C0C940000DB01E82FF0E06D
:1008A000EE0FFF1FEA59FD4F94919C933196E4910E
:1008B0001196EC9311978A3211F138F4803289F055
:1008C0008432B9F0863199F507C08B3321F18D332D
:1008D00041F1843361F519C08091050180FF27C083
:1008E00024C08091050184FF22C0E85F1196EC933B
:1008F00008958091050183FF1AC0965F17C080910B
:10090000050183FF14C09C5F11C08091050181FD2A
:100910000EC0985F0BC08091050184FD08C09A50FD
:1009200005C08091050182FD02C098509C930895F6
:10093000E82FF0E0EE0FFF1FEA52FE4F8491DB013B
:100940008C933196E4911196EC930895853020F0C4
:100950008FEFDA018C9308956E30D0F7BEE08B9F55
:10096000F0011124E60FF11DE057FE4FE491DA018A
:10097000EC93089566E784E70E944F0F66E784E7EB
:100980000C94620FCF93DF931F92CDB7DEB7AE0109
:100990004F5F5F4F0E94A604E981F0E0ED50FD4FEC
:1009A00010821092CC011092CD011092CE011092C3
:1009B000CF010F90DF91CF9108958091CB018111EC
:1009C0000FC081E08093CB018DE0809391008FB7C1
:1009D000F89493E0909399009DE0909398008FBFD6
:1009E0000895E1E7F0E0808182608083089580933C
:1009F000D50108958093D40108958091D0019091FC
:100A0000D101A091D201B091D30180739927AA2777
:100A1000BB2734E0B695A795979587953A95D1F77A
:100A200082309105A105B10571F083309105A105D2
:100A3000B10569F040E00197A105B10511F060E052
:100A400008C06FEF02C04FEF60E080E003C04FEFDF
:100A50006FEF8FEF0C947D0E40E060E080E00C942F
:100A60007D0E60910A0170910B01809107010E9437
:100A70005A0C962F672F482F892F0C947D0E5F926A
:100A80006F927F928F929F92AF92BF92CF92DF929E
:100A9000EF92FF920F931F93CF93DF931F92CDB7E7
:100AA000DEB760910A0170910B01809107010E94ED
:100AB0005A0CA62E972E882E60910D0170910E0172
:100AC000809107010E945A0C762E672E582E40E224
:100AD000E42E41E0F42EB12CCC24C394D12C00E0C0
:100AE00010E0AE014F5F5F4F602F8B2D0E94A60478
:100AF00089818834C0F4F601002E02C0EE0FFF1F7A
:100B00000A94E2F7D7012D913C91E223F32390E080
:100B1000EF2B21F4282D492D6A2D03C0252D462DBC
:100B2000672D0E94450E0F5F1F4F0E301105C9F64D
:100B3000B394B2E0EB0EF11C85E0B812D0CF0F9069
:100B4000DF91CF911F910F91FF90EF90DF90CF90A9
:100B5000BF90AF909F908F907F906F905F9008951F
:100B6000DF92EF92FF920F931F93CF93DF9300D00A
:100B7000CDB7DEB780910D0190E020910A01821B74
:100B800091098038910514F09A9505C081382FEFAE
:100B900092070CF4939597FD0396959587959595F7
:100BA0008795D82E20910E0130E080910B01281BF3
:100BB000310937FF02C02D5F3F4F35952795359599
:100BC0002795E22EF090070100E010E0BE016F5F74
:100BD0007F4F802F0E944D049A8192959F70609163
:100BE0000A019D9D600D112470910B019E9D700D59
:100BF00011248F2D0E945A0C472F282FC8010E94C4
:100C0000450E0F5F1F4F0834110501F70F900F902D
:100C1000DF91CF911F910F91FF90EF90DF9008959A
:100C20008F929F92BF92CF92DF92EF92FF920F939B
:100C30001F93CF93DF931F92CDB7DEB7D82EF090DE
:100C40000A0120910D0130E02F19310937FF02C050
:100C50002D5F3F4F3595279535952795C22EE0900E
:100C60000B0120910E0130E02E19310937FF02C02F
:100C70002D5F3F4FA9015595479555954795B42E42
:100C80000E94102C68E470E00E94A82B8C01812C3B
:100C9000912C1127D11003C080169106C9F40E942F
:100CA000102C83706F2D8C9D600D112469830E9420
:100CB000102C83707E2D8B9D700D11246981809185
:100CC00007010E945A0C472F282FC4010E94450E8D
:100CD0008FEF881A980AE8E48E169104D9F60F90DF
:100CE000DF91CF911F910F91FF90EF90DF90CF9008
:100CF000BF909F908F900895DF92EF92FF920F9395
:100D00001F93CF93DF938091D0019091D101A09157
:100D1000D201B091D3010090090104C0880F991F3E
:100D2000AA1FBB1F0A94D2F7D82E03EF12E0C0E02F
:100D3000D0E0AFE3EA2EF12CF80121918F01F4E02D
:100D40002F9F90011124CA32D10551F0C334D1052F
:100D500039F08091050183FF09C0C434D10531F415
:100D60002091170384E0289F90011124203431053D
:100D700020F4B701621B730B02C060E070E06D0DE0
:100D80007FEF809107010E945A0C472F282FCE0138
:100D90000E94450E2196C834D10571F6DF91CF919E
:100DA0001F910F91FF90EF90DF9008958F929F9287
:100DB000AF92BF92CF92DF92EF92FF920F931F9369
:100DC000CF93DF9300D0CDB7DEB78091D001909163
:100DD000D101A091D201B091D3010090090104C0CA
:100DE000880F991FAA1FBB1F0A94D2F7882E9090D4
:100DF0000701B3EFCB2EB2E0DB2E00E010E08FE373
:100E0000A82EB12CF60121916F01F4E02F9F9001E3
:100E100011240A32110551F00334110539F0809183
:100E2000050183FF09C00434110531F42091170333
:100E300084E0289F900111242034310520F47501AD
:100E4000E21AF30A02C0E12CF12CBE016F5F7F4F62
:100E5000802F0E944D046981680D6E0D7FEF892DF2
:100E60000E945A0C472F282FC8010E94450E0F5F81
:100E70001F4F0834110531F60F900F90DF91CF917D
:100E80001F910F91FF90EF90DF90CF90BF90AF90A8
:100E90009F908F9008958F929F92AF92BF92CF9222
:100EA000DF92EF92FF920F931F93CF93DF9300D0C7
:100EB000CDB7DEB78091D0019091D101A091D20140
:100EC000B091D3010090090104C0880F991FAA1F97
:100ED000BB1F0A94D2F7882E9090070193EFC92E7A
:100EE00092E0D92E00E010E02FE3A22EB12CF60103
:100EF00021916F01F4E02F9F900111240A32110516
:100F000051F00334110539F08091050183FF09C0C8
:100F10000434110531F42091170384E0289F9001D7
:100F200011242034310520F47501E21AF30A02C0BD
:100F3000E12CF12CBE016F5F7F4F802F0E944D048A
:100F40006A81680D6E0D7FEF892D0E945A0C472F24
:100F5000282FC8010E94450E0F5F1F4F083411054E
:100F600031F60F900F90DF91CF911F910F91FF906D
:100F7000EF90DF90CF90BF90AF909F908F900895AB
:100F8000CF92DF92FF920F931F93CF93DF931F9225
:100F9000CDB7DEB7F82E0E94102C68E470E00E94F6
:100FA000A82B8C01C12CD12C1127F11003C0C01625
:100FB000D10681F40E94102C89830E94102C698133
:100FC000782F809107010E945A0C472F282FC601C5
:100FD0000E94450E8FEFC81AD80AE8E4CE16D10455
:100FE00021F70F90DF91CF911F910F91FF90DF902C
:100FF000CF900895EF92FF920F931F93CF93DF93BB
:1010000000D0CDB7DEB78091D0019091D101A091F1
:10101000D201B091D3010090090104C0880F991F3B
:10102000AA1FBB1F0A94D2F7E82EF090070100E038
:1010300010E0BE016F5F7F4F802F0E94980469818E
:101040006E0D7A818F2D0E945A0C472F282FC801D0
:101050000E94450E0F5F1F4F0834110551F70F9086
:101060000F90DF91CF911F910F91FF90EF90089516
:10107000EF92FF920F931F93CF93DF9300D0CDB7E2
:10108000DEB78091D0019091D101A091D201B091B1
:10109000D3010090090104C0880F991FAA1FBB1F2C
:1010A0000A94D2F7E82EF090070100E010E0BE01AC
:1010B0006F5F7F4F802F0E94980469816E0D67FDDE
:1010C00060956695669580910A01680F7A8176959C
:1010D00071588F2D0E945A0C472F282FC8010E944B
:1010E000450E0F5F1F4F0834110509F70F900F9041
:1010F000DF91CF911F910F91FF90EF9008950F9383
:101100001F93CF93DF93082F862FBA010E945A0CAA
:10111000EB01182F0E3F49F4482F6D2F8C2FDF91D4
:10112000CF911F910F910C947D0E282F4D2F802F62
:1011300090E00E94450E0432E9F4212F4D2F6C2FD0
:101140008AE290E00E94450E212F4D2F6C2F83E400
:1011500090E00E94450E8091050183FF0BC0212F76
:101160004D2F6C2F84E490E0DF91CF911F910F9170
:101170000C94450EDF91CF911F910F9108958091AE
:1011800013018F3F61F09091D40191FF08C040910D
:10119000100150911101609112010E947F0880910D
:1011A000710283FF0BC080911F018F3F11F14091AD
:1011B0001C0150911D0160911E0119C082FF0BC0DE
:1011C00080911B018F3FA9F04091180150911901A6
:1011D00060911A010CC081FF0CC0809117018F3FF4
:1011E00041F04091140150911501609116010C9449
:1011F0007F080895FC01862F642F853010F08083CE
:101200000895AF010C94A60445E250E063E270E05B
:1012100085E091E00C94202C45E250E063E270E020
:1012200085E091E00C943E2CE0E2F1E0DC012D91B0
:101230003D91CD0121933193B1E0EA32FB07B1F743
:101240000C940C09CF93DF9378940E948C0F84E761
:101250000E94F50D86E70E94F50DC0E0D0E0C73191
:10126000D10529F48091050180FD21C037C0C33329
:10127000D10529F48091050181FD19C02FC0CE331D
:10128000D10529F48091050182FD1CC027C0C3341B
:10129000D10529F48091050183FD20C013C0C53319
:1012A000D10529F48091050186FD18C00BC0C73413
:1012B000D10529F48091050186FD10C00BC0C8310D
:1012C000D10561F0CE014997029740F0CE01819798
:1012D000029720F061E0C332D10509F460E061704B
:1012E000262F462F8C2F0E94970E2196C834D105A9
:1012F00009F0B5CF66E784E70E94620FE3EFF2E002
:101300008FEF819393E0EB33F907D9F7DF91CF911A
:1013100008951F93CF93DF93EC019881809105018D
:10132000192F18271F7590FB80F98093050198816C
:101330009695917090FB81F980930501988192FBBD
:10134000992790F990FB82F980930501988193FB8E
:10135000992790F990FB83F98093050198819295E4
:10136000917090FB84F980930501988196FB9927F1
:1013700090F990FB86F980930501988195FB992758
:1013800090F990FB85F9809305018981809306018E
:101390008A81809307018B81809308018C818093DF
:1013A00009018D819E81AF8180930A0190930B0189
:1013B000A0930C0188859985AA8580930D0190934F
:1013C0000E01A0930F018B859C85AD858093100144
:1013D00090931101A09312014F856E8583E191E0F6
:1013E0000E94FA08288939894A8920931401309388
:1013F0001501409316014C896B8987E191E00E94A9
:10140000FA082D893E894F892093180130931901DC
:1014100040931A01498D688D8BE191E00E94FA0892
:101420002A8D3B8D4C8D20931C0130931D014093E0
:101430001E014E8D6D8D8FE191E00E94FA081123FF
:1014400029F0DF91CF911F910C942209DF91CF9168
:101450001F9108958091080190E001968C309105CC
:1014600014F08BE090E0809308010C940C098091BB
:10147000080190E0019797FF02C080E090E08C3077
:10148000910514F08BE090E0809308010C940C0916
:101490008091090190E001968430910514F083E079
:1014A00090E0809309010C940C098091090190E06F
:1014B000019797FF02C080E090E08430910514F01E
:1014C00083E090E0809309010C940C09809107015E
:1014D00090E008968F3F910519F014F08FEF90E09F
:1014E000809307010C940C098091070190E0089704
:1014F00097FF02C080E090E08F3F910519F014F053
:101500008FEF90E0809307010C940C0980910A0101
:1015100090E008968F3F910519F014F08FEF90E05E
:1015200080930A010C940C0980910A0190E00897BD
:1015300097FF02C080E090E08F3F910519F014F012
:101540008FEF90E080930A010C940C0980910B01BD
:1015500090E008968F3F910519F014F08FEF90E01E
:1015600080930B010C940C0980910B0190E008977B
:1015700097FF02C080E090E08F3F910519F014F0D2
:101580008FEF90E080930B010C940C0980910D017A
:1015900090E008968F3F910519F014F08FEF90E0DE
:1015A00080930D010C940C0980910D0190E0089737
:1015B00097FF02C080E090E08F3F910519F014F092
:1015C0008FEF90E080930D010C940C0980910E0137
:1015D00090E008968F3F910519F014F08FEF90E09E
:1015E00080930E010C940C0980910E0190E00897F5
:1015F00097FF02C080E090E08F3F910519F014F052
:101600008FEF90E080930E010C940C090F931F93C1
:10161000CF93DF93EB0123E0829FC00111248C0163
:10162000085B1F4FC8010E94302C8883C8010196B7
:101630000E94302C8983C80102960E94302C8A8334
:10164000DF91CF911F910F9108950F931F93CF9327
:10165000DF9300D01F92CDB7DEB700E010E0BE01EF
:101660006F5F7F4F802F0E94060B809107018B8355
:1016700069817A818B810E945A0C472F282FC801DB
:101680000E94450E0F5F1F4F0834110541F70F9060
:101690000F900F90DF91CF911F910F9108951F929E
:1016A0000F920FB60F9211240F931F932F933F9316
:1016B0004F935F936F937F938F939F93AF93BF935A
:1016C000EF93FF938091CA01843120F48F5F809360
:1016D000CA01A2C08091D0019091D101A091D20104
:1016E000B091D3010196A11DB11D8093D0019093BB
:1016F000D101A093D201B093D3018091CC019091FC
:10170000CD01A091CE01B091CF018F3F2FEF920775
:10171000A207B20759F00196A11DB11D8093CC011B
:101720009093CD01A093CE01B093CF01E3EFF2E00F
:1017300080818F3F11F08F5F8083319683E0EB33A0
:10174000F807B1F7409108014F3F19F40E94FD04DA
:1017500063C08091D501882321F08091050185FD2A
:101760001EC050910601511102C080E019C020EB4B
:1017700034E0529FC001539F900D1124AA2797FD7A
:10178000A095BA2F0091CC011091CD012091CE01EE
:101790003091CF0180179107A207B30730F781E09E
:1017A000182F117009F040E081E090910401491375
:1017B00001C080E04093040150E04B30510530F50A
:1017C000FA01EA5AFF4F0C94BC2B0E942C0520C052
:1017D0000E9431051DC00E943F051AC00E94B0053D
:1017E00017C00E94100614C00E947C0611C00E94FF
:1017F000D6060EC00E944B070BC00E94C00708C04F
:101800000E94FA0705C00E94380802C00E94250BFA
:10181000111102C00E94BF08FF91EF91BF91AF91DB
:101820009F918F917F916F915F914F913F912F91F8
:101830001F910F910F900FBE0F901F901895EF9270
:10184000FF920F931F93CF93DF9300D0CDB7DEB7F6
:10185000E32EF42EAE014F5F5F4F2A830E94A60451
:1018600009812A810834A0F483E0089F80011124B3
:10187000085B1F4F622FC8010E944E2C6E2DC801BD
:1018800001960E944E2C6F2DC80102960E944E2C8C
:101890000F900F90DF91CF911F910F91FF90EF90DC
:1018A00008956091D0017091D1018091D201909101
:1018B000D3010895AF92BF92DF92EF92FF920F9300
:1018C0001F93CF93DF93D82EF82F711103C0682F89
:1018D000782F7FC0E62EF12CC72FD0E0082F10E024
:1018E000C7016BE270E00E94942B45ED4603900126
:1018F000479F300D11242E0D3F1D46E0429FC00131
:10190000439F900D11244FEF50E0DA01AC1BBD0B4B
:10191000A09F9001A19F300DB09F300D1124F32E98
:101920008C9FD0018D9FB00D9C9FB00D1124AB2FCB
:10193000BB275A01AA1ABB0AA09ED001A19EB00DD6
:10194000B09EB00D1124EB2F5A01A81AB90AAC9E13
:10195000C001AD9E900DBC9E900D1124892F99273A
:10196000481B590B409FE001419FD00D509FD00D67
:10197000112462307105A9F03CF46115710571F014
:1019800061307105C1F014C06330710569F06430D5
:10199000710571F4D32EFF2EED2F0DC0ED2DDD2E30
:1019A0000AC0E32FFD2E07C0E32FFD2CDB2E03C062
:1019B000EF2FD32EFB2EF0E0EA50FD4F6491ED2D7A
:1019C000F0E0EA50FD4F7491EF2DF0E0EA50FD4F4A
:1019D0008491DF91CF911F910F91FF90EF90DF9055
:1019E000BF90AF90089580E290E00E94382C8F3134
:1019F000954451F482E290E00E94302C91E08630D0
:101A000009F090E0892F01C080E081700895CF93A4
:101A1000C82F882319F06FE175E402C06FEF7FEFE4
:101A200080E290E00E94602CCC2311F066E001C0BF
:101A30006FEF82E290E0CF910C944E2C50E0440F77
:101A4000551F9CE1699F400D511D11249CE8899F01
:101A5000400D511D1124CA01805E9E4F08950F93C1
:101A60001F93CF93DF930E941E0DEC010E94302C38
:101A7000082F10E0102F0027CE0101960E94302C75
:101A80009801282BC901DF91CF911F910F910895E3
:101A90000F931F93CF93DF9300D0CDB7DEB72A8388
:101AA00039830E941E0D8C013981632F0E944E2CB8
:101AB0002A81622FC80101960F900F90DF91CF917C
:101AC0001F910F910C944E2C1F93CF93DF93D0E076
:101AD000C0E010E02FEF3FEF412F6C2F8D2F0E94C1
:101AE000480D1F5F1E30B1F7CF5FC53091F7DF5F44
:101AF000D43071F7DF91CF911F9108951F93CF9349
:101B0000DF93D82FC62F172F0E94F30C882379F06C
:101B1000D43068F4153058F4CE3048F44C2F612F8F
:101B20008D2F0E942F0D8F3F2FEF920789F48EE0AB
:101B3000189FF001112426E4D29FE00DF11D11241D
:101B4000EC0FF11DEE0FFF1FEE59FB4F85919491A5
:101B5000DF91CF911F910895880F80935D0460936A
:101B60005E0440935F0488EF8093D7028091D70290
:101B70008F3F39F040E063E08DE594E00E94A30FD1
:101B8000F5CF0895FF920F931F93CF93DF938B01AF
:101B9000880F80935D04C0E0D0E088EFF82E8C2F92
:101BA0008C5D80935E04EFE5F4E0D801AC0FBD1FBF
:101BB0008D91819384E0EF36F807D1F7F092D70248
:101BC0008091D7028F3F39F040E062E18DE594E0EB
:101BD0000E94A30FF5CF6096C039D10501F7DF91C0
:101BE000CF911F910F91FF900895CF93DF93C82F4E
:101BF0004BE06DEF0E94AC0D40E06AE08C2F0E943C
:101C0000AC0D8FE39CE90197F1F700C0000040E0C4
:101C100060E08C2F0E94AC0D40E061E08C2F0E94B0
:101C2000AC0D40E066E08C2F0E94AC0D40E06DEF03
:101C30008C2F0E94AC0DD0E040E06D2F8C2F0E94C5
:101C4000AC0DDF5FD231C1F740E06D2F8C2F0E94C9
:101C5000AC0DDF5FD432C1F740E06D2F8C2F0E94B6
:101C6000AC0DDF5FD43BC1F74BE06DEF8C2F0E94D2
:101C7000AC0D41E06AE08C2F0E94AC0D40E06DEFAE
:101C80008C2FDF91CF910C94AC0DCF93DF938834E0
:101C9000910580F58432910524F08497C1E0D0E06D
:101CA00002C0C0E0D0E0FC01E25CFB4FE49130E90F
:101CB0003C9FD0013D9FB00D1124A35CBC4FED01B2
:101CC000CE0FD11DFE01B4976083FC01E65EFB4F91
:101CD000E491BD016E0F711DFB01B4974083FC01BF
:101CE000EA50FC4F8491A80FB11D94972C9381E08A
:101CF0008093FB01DF91CF910895FF920F931F9383
:101D0000CF93DF93182F062FF42EC0E0D0E02F2DB5
:101D1000402F612FCE010E94450E2196C834D10577
:101D2000B1F7DF91CF911F910F91FF900895FF922E
:101D30000F931F93CF93DF93843218F0845291E076
:101D400001C090E0823118F0825171E001C070E072
:101D500036E0839FF0011124E95CFE4FA0815181A0
:101D6000F280C381D4813581892F90E0B0E0E72FE4
:101D7000F0E08D010E0F1F1F662399F062E1689F4E
:101D8000D001699FB00D1124A00FB11FA952BE4F01
:101D900061E070E001C0660F5A95EAF75C91562B3E
:101DA00013C062E1689FD001699FB00D1124A00F9C
:101DB000B11FA952BE4F61E070E001C0660F5A9595
:101DC000EAF760955C9156235C936F2D70E06E0F7F
:101DD0007F1F4423A1F042E1489FD001499FB00DED
:101DE0001124A60FB71FA952BE4F41E050E00C2EA0
:101DF00001C0440F0A94EAF75C91542B14C042E1ED
:101E0000489FD001499FB00D1124A60FB71FA952BA
:101E1000BE4F41E050E00C2E01C0440F0A94EAF797
:101E200040955C9154235C934D2F50E02223B9F0F0
:101E3000E40FF51F22E1289FD001299FB00D112446
:101E4000AE0FBF1FA952BE4F81E090E0032E01C02C
:101E5000880F0A94EAF79C91982B9C9317C04E0F19
:101E60005F1F22E1289FF001299FF00D1124E40F4C
:101E7000F51FE952FE4F81E090E0032E01C0880F6C
:101E80000A94EAF7809590819823908381E080936B
:101E9000D601DF91CF911F910F91FF900895CF93BD
:101EA000C62F9091FB01992349F06DE373E00E94E6
:101EB000C20D6DEC73E08C2F0E94C20D1092FB01DD
:101EC000CF910895DF92EF92FF920F931F93CF93DC
:101ED000DF93D82EE62E8091D6018823A9F007ED56
:101EE00011E0C9EED1E0F12CF80141918F016F2D85
:101EF0008D2D0E94AC0D49916F2D8E2D0E94AC0D41
:101F0000F394F2E1FF12F0CFDF91CF911F910F9187
:101F1000FF90EF90DF9008951092D6028FEF80939C
:101F2000D7021092D8021092B9008CE08093B800CA
:101F300085E08093BC0008959091D6029D7F81E05A
:101F400009F080E008951F93CF93DF9300D01F9294
:101F5000CDB7DEB7182F653108F049C04A836983D1
:101F60009B830E949C0F4A8169819B81811105C0DE
:101F700085E08A95F1F70000F1CF4093D802E12F78
:101F8000F92FABEDB2E070E0CD018B5D924086178A
:101F900097071CF481918D93F7CF70933C03609366
:101FA0003B031092DA021092D9028091D60282305D
:101FB000B1F481E08093D6028091D9029091DA0247
:101FC0009C012F5F3F4F3093DA022093D902FC012E
:101FD000E552FD4F80818093BB0085E804C081E01D
:101FE0008093D60285EA8093BC0080E001C081E046
:101FF0000F900F900F90DF91CF911F9108951F9236
:102000000F920FB60F9211242F933F934F938F93FC
:102010009F93EF93FF938091B900887F883239F1C5
:1020200080F4803109F49FC030F4882309F49FC004
:102030008830E9F0A3C08831B9F0803209F480C05B
:102040009DC0803491F138F4803309F479C088332D
:1020500009F476C093C08035A9F1883509F455C0DC
:10206000883409F08BC06CC083E08093D602209145
:10207000D9023091DA0280913B0390913C032817FA
:1020800039070CF053C08091D9029091DA029C017B
:102090002F5F3F4F3093DA022093D902FC01E552C3
:1020A000FD4F80818093BB002BC084E08093D602DB
:1020B0008091EF029091F00201972091F10230910E
:1020C000F20216C08091F1029091F2029C012F5F02
:1020D0003F4F3093F2022093F1024091BB00FC018C
:1020E000EE53FD4F40838091EF029091F0020197F3
:1020F000281739072CF488EF8093D70285EC3CC071
:1021000088EF8093D70285E837C08091F1029091E3
:10211000F2029C012F5F3F4F3093F2022093F102B5
:102120002091BB00FC01EE53FD4F20838091D8022B
:10213000882311F08FEF0BC01092D6028FEF10C0E2
:102140008091D802882339F08091B900887F8093EC
:10215000D70285EA11C01092D6028091B900887F1B
:102160008093D70208C082E08093D60207C0109205
:10217000D7021092D60285E98093BC00FF91EF91BF
:102180009F918F914F913F912F910F900FBE0F9084
:102190001F9018951F93CF93DF93EC01162F488162
:1021A00050E0FA013197E830F105A8F5EF59FF4FFB
:1021B0000C94BC2B86E090E09A8389832EC04B81DF
:1021C0006A8189810E942F0D9D838C8326C02C817A
:1021D0003D814B816A8189810E94480D1EC00E9409
:1021E000640D1BC001960E94890903C001960E94DC
:1021F00014090E940C0911C02B813C814D816A8118
:1022000089810E941F0C09C00E94510C6A837B8344
:102210008C839D8302C08FEF8883612FCE01DF9175
:10222000CF911F910C94C4240E94E2168FE19EE48A
:102230000197F1F700C000000E94E21680E00E94C2
:102240008E1780FF0CC084E00E948E1787FF07C0A6
:1022500080E00E94070D0E9490220C94C0230895F4
:102260000F931F93CF93DF931F92CDB7DEB70E94DA
:1022700014110E94F30C882319F00E9404091CC059
:102280000E940C0900E010E00E94102C89830E943B
:10229000102C382F3F7729814FEF612F802F0E941C
:1022A0001F0C1F5F1E3081F70F5F053061F70E9422
:1022B000640D81E00E94070D0E9422090E94DD0446
:1022C0000E94F1040F90DF91CF911F910F910C9418
:1022D00092160E94BA040C9493160F931F93CF93F7
:1022E000DF938C01EB018A81882321F06881898149
:1022F0000E94C204F801FF55E031F10508F067C003
:10230000E759FF4F8A810C94BC2B882309F467C0DE
:102310000E94660A64C0882309F461C00E94740A9E
:102320005EC0882309F45BC00E942A0A58C0882333
:1023300009F455C00E94370A52C0882309F44FC0DF
:102340000E94480A4CC0882309F449C00E94550ADB
:1023500046C0882309F443C00E94860A40C08823EF
:10236000F1F10E94940A3BC08823C9F10E94A60A99
:1023700036C08823A1F10E94B40A29C0882379F1CC
:102380000E94C60A2CC0882351F10E94D40A27C09B
:10239000882329F10E94E60A22C0882301F10E94C5
:1023A000F40A15C0882311F081E005C081E00CC05B
:1023B000882349F082E00E94FE2043E062E081E051
:1023C0000E94B5130CC082E00E941921F6CFBE0115
:1023D000C801DF91CF911F910F910C94491280E0B9
:1023E000DF91CF911F910F9108959C013F502F3F96
:1023F000310509F058F49C013327A90141535109D3
:102400004230510518F4C901986F0895FC01EE0F90
:10241000FF1FEE56F94F859194910895CF93DF9366
:10242000EC018FEC860F823038F58A818823D9F051
:10243000613311F481E001C082E00E94FE208D81B1
:10244000982F907F61F080FD0AC082958F7090E098
:10245000039794F083E0DF91CF910C9438218D8124
:102460008F708D8309C0613311F481E001C082E077
:10247000DF91CF910C941921DF91CF9108950C94A5
:10248000FA0481E00C94F70480E00C94F70481E0F6
:10249000089581E008950E949E1C2FEF84E39CE044
:1024A000215080409040E1F700C000000C94C02310
:1024B0000F931F93CF93DF938C01FC01C081D181D7
:1024C000CE010E948A21BE010E947E0DEC01B8015E
:1024D0000E946D11882309F442C1B801CE010E9407
:1024E0004616882309F43BC1C531FCE5DF0781F5B9
:1024F0000E943D22382FF801228180912A0190917B
:102500002B01222371F03A7A21E009F420E0209394
:10251000FC01222311F065E301C069E20E94192346
:1025200009C02091FC01222311F065E301C069E29A
:102530000E9424230E940A2281E08093010280935A
:102540000202C801DF91CF911F910F910C944712A5
:10255000C6318CE5D80708F097C0C130ECE5DE073E
:1025600059F4F8018281882309F4F9C080919E0210
:10257000816080939E02F3C0C230FCE5DF0708F45F
:1025800077C0F80182818823E1F20E9496228111AE
:1025900002C00E9476220E94A92290E090937604C5
:1025A00080937504FE01E350FC45E231F10520F40F
:1025B000E758FF4F0C94BC2B80917504816003C0D9
:1025C000809175048260809375044BC0809175047E
:1025D0008460F9CF8091750413C080917504806187
:1025E000F2CF809175048062EECF80917504806493
:1025F000EACF809175048068E6CF8091750484608D
:102600008860E1CF809175048E7FDDCF8091750465
:102610008D7FD9CF809175048B7FD5CF8091750444
:1026200013C0809175048F7ECECF809175048F7D0D
:10263000CACF809175048F7BC6CF809175048F7748
:10264000C2CF809175048B7F877FBDCF9091750439
:1026500097FB882780F921E0822780FB97F99093E8
:102660007504809175040E94AD220E949E1C77C063
:10267000C115DC4509F060CFF8018281882309F497
:102680006EC00E944B126BC0C13DECE5DE0739F510
:10269000F8018281882361F0109202020E94652372
:1026A000909300028093FF0180E20E940C1A57C0B1
:1026B0008091020281110FC08091FF019091000270
:1026C0000E947123883C910530F487E20E94CE1865
:1026D00087E20E94AB1980E20E94131A40C0C23DFB
:1026E000FCE5DF0738F5C03DDC4509F025CFF801F2
:1026F0008281882351F0109201020E9465239093F9
:10270000FE018093FD0182E0D0CF80910102811112
:102710000FC08091FD019091FE010E947123883CC1
:10272000910530F486E20E94CE1886E20E94AB1931
:1027300082E0D2CFC43DECE5DE0731F4F8018281BE
:10274000882369F080E009C0C53DDC4509F0F4CE7E
:10275000F8018281882319F082E00E948F2680E0B0
:10276000DF91CF911F910F910895CF92DF92EF9259
:10277000FF920F931F9301E010E020E030E068012A
:10278000790104C0CC0CDD1CEE1CFF1C8A95D2F72D
:10279000D701C60104C0000F111F221F331F6A9505
:1027A000D2F7802B912BA22BB32B009171021091A9
:1027B00072022091730230917402082319232A2394
:1027C0003B23081719072A073B0749F4842F1F9159
:1027D0000F91FF90EF90DF90CF900C94FE20842F0C
:1027E0001F910F91FF90EF90DF90CF900C941921E3
:1027F0000C9430110C9469110C943F1280E090E01D
:102800000895CF93DF930E947E0D0E949C15EC01EA
:10281000811520E49207C0F5C11580E3D80708F0C0
:10282000E5C0C03ED105D8F4C03CD10508F072C067
:10283000C83AD10578F4C53AD10508F06FC0C13067
:10284000D10509F475C108F42CC1C430D10508F0D4
:102850006FC127C1CD3BD10508F46BC022C1CF3F6A
:10286000D10509F048F4C03FD10508F0B9C0C83E11
:10287000D10508F45DC115C1C11520E2D20708F4E5
:1028800057C1CE019F70AEC0C11584E5D807D8F4FA
:10289000C11523E5D20708F0E4C0C11581E5D807CA
:1028A00040F4C11520E5D20708F0AAC0DF70D06A55
:1028B0003FC1C11582E5D80708F0BEC0DC2FCC2788
:1028C000C16FD06A35C1C11526E5D20750F4C115D4
:1028D00085E5D80708F0DAC0DC2FCC27C46FD06AB2
:1028E00027C1C11528E5D20708F4DBC0C11589E569
:1028F000D80708F4D1C0CE0190568115904208F057
:10290000D0C08D2F8F710E941816DD27D0628F7175
:10291000D82B0EC1CE01805C910964C0C53AD105A7
:1029200009F4C2C0C63AD10509F4C1C0C3E8D0E475
:10293000FFC0C83AD10509F4BDC0C93AD10509F4B0
:10294000BCC0CA3AD10509F4BBC0CB3AD10509F4E1
:10295000BAC0CC3AD10509F4B9C0CB3BD10509F4D2
:10296000B8C0CC3BD10509F4B7C0CD3AD10509F4C4
:10297000B6C0C03BD10509F4B5C0CE3AD10509F4C3
:10298000B4C0CF3AD10509F4B3C0C13BD10509F4B5
:10299000B2C0C23BD10509F4B1C0C33BD10509F4B3
:1029A000B0C0C43BD10509F4AFC0C53BD10509F4A3
:1029B000AEC0C63BD10509F4ADC0C73BD10509F493
:1029C000ACC0C83BD10509F4ABC0C93BD10509F483
:1029D000AAC0CA3BD10509F0A9C0CAE2D6E4A8C082
:1029E000D065A6C00E94F511EC01A2C0CE019927C6
:1029F000D3FF03C0EC01D86C9BC0EC01D06C98C035
:102A00002C2F237081E090E002C0880F991F2A9537
:102A1000E2F79C689E0174E0369527957A95E1F778
:102A20002370922BCF70C695C69520E2C29FE0011D
:102A30001124C82BD92B7CC08C2F8695869520E23B
:102A4000829FC00111249E0123703327C1E0D0E092
:102A500002C0CC0FDD1F2A95E2F7C82BD92BDC680A
:102A600067C08C2F8695869520E2829FC001112435
:102A70009E0123703327C1E0D0E002C0CC0FDD1FE0
:102A80002A95E2F7C82BD92BDA6852C0CF71DD271F
:102A9000DC2FCC27D0624CC0DC2FCC27C06FD06A93
:102AA00047C0C0E0D0E044C0C1E8D0E441C0C2E8C3
:102AB000D0E43EC0C2EED4E43BC0C9EED4E438C09A
:102AC000CAEED4E435C0C5EBD4E432C0C6EBD4E4DE
:102AD0002FC0C3EBD4E42CC0C4EBD4E429C0C7EBB3
:102AE000D4E426C0CCECD4E423C0CDECD4E420C0A4
:102AF000C3E8D5E41DC0CAE8D5E41AC0C2E9D5E4EC
:102B000017C0C4E9D5E414C0C1E2D6E411C0C3E2E1
:102B1000D6E40EC0C4E2D6E40BC0C5E2D6E408C0D9
:102B2000C6E2D6E405C0C7E2D6E402C0C0E0D4E401
:102B3000CE01DF91CF9108958238910549F1B0F42B
:102B40008133910509F459C048F48932910509F49B
:102B50004FC08A32910509F455C008958533910517
:102B600009F441C08933910599F00895833E910598
:102B700031F138F4803E910591F0823E9105A9F043
:102B80000895863E910501F1873E910539F108953A
:102B90002091750420FD3BC021FD39C0089580912E
:102BA000750480FF34C089E341C08091750482FFC1
:102BB00032C08091750484FF2CC080E037C08091C2
:102BC000750482FD28C0F5CF8091750483FF25C070
:102BD0008091750484FDF1CF87EE28C08091750443
:102BE00083FD1BC0F5CF8091750485FF18C019C007
:102BF0008091750485FF15C012C08091750486FF11
:102C000012C013C08091750486FF0FC00CC080EE07
:102C10000DC083EE0BC082EE09C086EE07C085E3CF
:102C200005C089E203C081E301C08AE290E0089513
:102C3000CF93C82F0E94A922282F30E0309376042A
:102C40002093750482FF0DC08C2F8871883019F491
:102C5000C77FC46006C08C2F8471843011F4CB7F91
:102C6000C86023FF0DC08C2F8871883119F4C77E8E
:102C7000C46106C08C2F8471843111F4CB7EC8618D
:102C800024FDC77E8C2FCF9108950895CF93DF93B5
:102C9000EC01FB018281811102C081E040C0809182
:102CA0001002811125C0C631DC45B9F70E944516D6
:102CB00081E0809310020E94652390930F0280931D
:102CC0000E0210920302109205021092040210925A
:102CD0000702109206021092090210920802109246
:102CE0000B0210920A0210920D0210920C0216C0F2
:102CF00080910E0290910F020E947123883C9105F1
:102D000060F680910302E82FF0E0EE0FFF1FEC5F0A
:102D1000FD4FD183C0838F5F8093030280E0DF91FA
:102D2000CF9108950895089585B7806885BF85B7C8
:102D3000806885BFA1EBB1E021E030E08D91E82F04
:102D4000E295EF70F0E041A18F70B90102C0660F0B
:102D5000771F8A95E2F7CB01962F9095492341A3DF
:102D600092A1982B92A371E0A63BB70739F7A3EA8B
:102D7000B1E021E030E08D91E82FE295EF70F0E0D6
:102D800041A18F70B90102C0660F771F8A95E2F7E3
:102D9000CB01962F9095492341A392A1982B92A302
:102DA00071E0A13BB70739F7EBE1F2E0A1E1B2E056
:102DB000119211921D921D9282E0E532F807C1F73F
:102DC0000C94F8134F925F927F928F929F92AF92E2
:102DD000BF92CF92DF92EF92FF920F931F93CF9308
:102DE000DF9301EB11E0C1E1D2E0EE24E394F12C9A
:102DF00099249394BE01A880B98019821882D801C1
:102E00002D918D01E22FE295EF70F0E081A12F70FE
:102E1000A70102C0440F551F2A95E2F79A01842B9F
:102E200081A382A1842E8094882182A350EA5A959E
:102E3000F1F743EA442E41E0542E80E090E0D201C5
:102E40004D912D01C42EC2943FE0C322D12CD60156
:102E500090967C90C880D9804F70D70102C0AA0F8D
:102E6000BB1F4A95E2F77A2241F4A701082E02C05F
:102E7000440F551F0A94E2F702C040E050E04C298D
:102E80005D295983488301968E309105C1F681A151
:102E9000882181A382A1822B82A32296FB018081BB
:102EA0009181A816B90641F0909225020E946523EF
:102EB0009093270280932602F1E0063B1F0709F05A
:102EC00099CF809125028823B1F0809126029091BC
:102ED00027020E947123069770F0E1E1F2E0ABE176
:102EE000B2E0819191918D939D9342E0EB31F40793
:102EF000C1F7109225020E94FA1381E0DF91CF9171
:102F00001F910F91FF90EF90DF90CF90BF90AF9007
:102F10009F908F907F905F904F900895E82FF0E002
:102F2000EE0FFF1FE55EFD4F8081918108950895AA
:102F300090932D0280932C020895E0912C02F09141
:102F40002D02309721F00190F081E02D099480E06E
:102F50000895E0912C02F0912D02309721F002802B
:102F6000F381E02D0994089520912A0230912B02DB
:102F70008217930771F090932B0280932A02E091BD
:102F80002C02F0912D02309721F00680F781E02D80
:102F900009940895209128023091290282179307FD
:102FA00071F09093290280932802E0912C02F09115
:102FB0002D02309721F00084F185E02D09940895C9
:102FC00008950C94E0170E945C230E9494160C94C0
:102FD000E3235F926F927F928F929F92AF92BF9204
:102FE000CF92DF92EF92FF920F931F93CF93DF93D5
:102FF000CDB7DEB72A970FB6F894DEBF0FBECDBFB0
:103000000E94E2169FE2C92E92E0D92E00E010E065
:10301000AA24A394B12C502E802F0E948E173C011D
:10302000F601E190F1906F01E826F926E114F10430
:10303000B1F40F5F1F4F0530110569F78FEF8983DA
:103040008A831B820E9465238160782F9D838C83F5
:1030500049815A816B818D810E94A0183AC080916C
:103060009E0281FD0E94971720E030E04501022E6C
:1030700002C0880C991C0A94E2F7C4018E219F219A
:10308000892B09F12E835F826820792081E06728EF
:1030900009F480E088870E9465238160782F9A87F1
:1030A00089874E815F8168858A850E94A018F80112
:1030B000EE0FFF1FE15DFD4F8081918188259925ED
:1030C0009183808306C02F5F3F4F2E30310571F60C
:1030D000B0CF10912E020E949D171817D9F00E94B0
:1030E0009D1780932E022A960FB6F894DEBF0FBE6E
:1030F000CDBFDF91CF911F910F91FF90EF90DF90A7
:10310000CF90BF90AF909F908F907F906F905F9087
:103110000C94FC132A960FB6F894DEBF0FBECDBFF9
:10312000DF91CF911F910F91FF90EF90DF90CF90A3
:10313000BF90AF909F908F907F906F905F90089519
:10314000CF93DF93CDB7DEB72B970FB6F894DEBFE2
:103150000FBECDBF4F83588769877A878B87DE0183
:10316000119686E0FD0111928A95E9F785E0FE014E
:10317000379601900D928A95E1F749815A816B81CA
:103180007C818D819E810E94681F2B960FB6F894DA
:10319000DEBF0FBECDBFDF91CF910895882309F424
:1031A000D9C0823879F40E949D1781FDD3C069E3AC
:1031B00080912A0190912B010E9419230E940A22DA
:1031C00069E310C08338B1F40E949D1780FDC2C02E
:1031D00063E580912A0190912B010E9419230E949E
:1031E0000A2263E580912A0190912B010E942423F9
:1031F0000C940A22843879F40E949D1782FDAAC09B
:1032000067E480912A0190912B010E9419230E946A
:103210000A2267E4E7CF9CEF980F913A40F4682FB9
:1032200080912A0190912B010E941923E1CF90E215
:10323000980F983050F4877091E001C0990F8A95EB
:10324000EAF7892F0E944022D3CF9BE5980F933055
:1032500070F4853A29F0863A31F482E890E005C0AE
:1032600081E890E002C083E890E00C94B41798E500
:10327000980F953108F06EC0883A61F1893A69F18A
:103280008A3A71F18B3A79F18C3A81F18B3B89F171
:103290008C3B91F18D3A99F1803BA1F18E3AA9F1E5
:1032A0008F3AB1F1813BB9F1823BC1F1833BC9F166
:1032B000843BD1F1853BD9F1863BE1F1873BE9F1D4
:1032C000883BF1F1893BF9F18A3B09F03FC08AE282
:1032D00092E03EC082EE90E03BC089EE90E038C0C4
:1032E0008AEE90E035C085EB90E032C086EB90E04E
:1032F0002FC083EB90E02CC084EB90E029C087EBDB
:1033000090E026C08CEC90E023C08DEC90E020C0D3
:1033100083E891E01DC08AE891E01AC082E991E05B
:1033200017C084E991E014C081E292E011C083E209
:1033300092E00EC084E292E00BC085E292E008C009
:1033400086E292E005C087E292E002C080E090E071
:103350000C94CA170895882309F45DC0823879F463
:103360000E949D1781FF57C069E380912A019091C7
:103370002B010E9419230E940A2269E310C083389E
:10338000B1F40E949D1780FF46C063E580912A0139
:1033900090912B010E9419230E940A2263E58091DB
:1033A0002A0190912B010E9424230C940A22843834
:1033B00079F40E949D1782FF2EC067E480912A0154
:1033C00090912B010E9419230E940A2267E4E7CF03
:1033D0009CEF980F913A10F4682FE1CF90E2980F8C
:1033E000983050F4877091E001C0990F8A95EAF700
:1033F000892F0E944622D9CF9BE5980F933020F465
:1034000080E090E00C94B417885A853120F480E075
:1034100090E00C94CA170895882321F00E9440225E
:103420000C940A220895882321F00E9446220C94CD
:103430000A2208958F929F92BF92CF92DF92EF92CD
:10344000FF920F931F93CF93DF9300D0CDB7DEB7DA
:103450004C01472FFC01C580C2949FE0C922D28055
:10346000DD2031F079836A830E945D226A8149817F
:1034700049836A830E94032249816A81882389F0F3
:10348000DD2079F080E2860F883058F082E00E94DB
:10349000EC210E940322BB24B394B82649816A819F
:1034A00001C0B12CE42EE2948FE0E822F12CF70168
:1034B000E557FF4F0C94BC2B842F807F142F1F7077
:1034C000882311F01295107FDD20C1F0112309F43B
:1034D00096C180E2860F883010F0611105C0812FFF
:1034E0006A830E94402204C0812F6A830E94502276
:1034F0006A816A830E940A226A8181C1862F6A8357
:103500000E94AB196A81112309F49AC180E2860FE7
:10351000883010F0611104C0812F0E94462203C040
:10352000812F0E9456220E940A228AC1242F207FC6
:10353000842F8F70203211F08295807F662319F0DE
:103540006130B9F022C0DD2049F0CC2009F40CC173
:10355000F1E0CF1209C10E94702272C1CC2021F08B
:1035600021E0C21609F46CC189830E94732289810B
:1035700001C1DD2029F095E09C1508F461C1F4C07B
:10358000E4E0EC1508F45CC1F5C0DD2051F0CC207E
:1035900009F4EAC0F401958190FF31C19F709583D1
:1035A000E3C0CC2009F4E6C03BC1242F2695269524
:1035B000237030E02115310521F02130310561F013
:1035C0003FC1DD2021F0862F942F937002C080E050
:1035D00090E00E94B41744C1DD2021F0862F942F83
:1035E000937002C080E090E00E94CA1739C1842F16
:1035F000837009F04EC0D1102FC1262F2295269539
:103600002770220F220F862F8F70C82ED12CE12C0D
:10361000F12C022E04C0CC0CDD1CEE1CFF1C0A9405
:10362000D2F764FF10C06FE070E080E090E004C06B
:10363000660F771F881F991F2A95D2F7609570959E
:103640008095909503C060E070E0CB01242F269513
:103650002695237030E02230310569F023303105A2
:1036600089F06C297D298E299F292130310571F03F
:103670000E94B920F1C06C297D298E299F290E94C2
:10368000CB20EAC00E94B920C701B6010E94A72042
:10369000E3C0DD2019F0842F817001C08695882356
:1036A00009F4DAC0262F229526952770220F220FC3
:1036B000862F8F70C82ED12CE12CF12C022E04C045
:1036C000CC0CDD1CEE1CFF1C0A94D2F764FF10C06A
:1036D0006FE070E080E090E004C0660F771F881F05
:1036E000991F2A95D2F7609570958095909503C0A3
:1036F00060E070E0CB01242F26952695237030E002
:103700002230310569F02330310589F06C297D299B
:103710008E299F292130310571F00E9465219CC0BE
:103720006C297D298E299F290E94772195C00E94AE
:103730006521C701B6010E9453218EC0062F10E0FB
:10374000F801E05EF109E531F10508F054C0E556F5
:10375000FF4F0C94BC2B162F1F70842F8F71DD2010
:1037600031F00E94FE20812F0E940C1A69C00E9435
:103770001921812F0E94131A63C0DD2049F0F4E063
:10378000FC1508F45DC0842F8F710E94382158C049
:1037900025E02C1508F454C0F6CFDD2039F0842F35
:1037A0008F710E94FE204CC0DD20C9F3842F8F71E1
:1037B0000E94192145C0DD2029F0842F8F710E94BD
:1037C000EF203EC00E94EA203BC0DD2051F0142FC4
:1037D0001F71812F0E94FE2063E0812F0E94E32150
:1037E0002FC081E00E94EC2181E08C1548F582E039
:1037F0000E94EC2125C0DD2031F0CC2081F2862F03
:103800000E94CE181DC0CC2089F2693349F49FEF85
:10381000E7EEF3E09150E040F040E1F700C0000037
:10382000862F0E94AB190CC04F70C4010E94FE137A
:103830000E94152015C04F70C4010E940E1210C0C6
:1038400028E0E216F10441F05CF09AE0E91AF10890
:10385000E2E0EE16F10420F40E949D170E94FC1392
:10386000BB20F1F00E94DF2180FD1AC0F40112821A
:103870000E94D9210E94FE20C4010E945E1C0E9469
:10388000D9210F900F90DF91CF911F910F91FF9051
:10389000EF90DF90CF90BF909F908F900C94192164
:1038A0000F900F90DF91CF911F910F91FF90EF90AC
:1038B000DF90CF90BF909F908F9008950F931F93AC
:1038C000CF93DF93EC01288139818B819C81892BF7
:1038D00031F03F3F11F080E003C02F3FE1F781E07E
:1038E000811113C0CE010E945812882371F06881A3
:1038F00079818A810E94D5218C010E9489210E94B0
:10390000A420B801CE010E941A1ADF91CF911F9115
:103910000F9108950E945D220E946D2280912A01DC
:1039200090912B010E942F230E940A2280E090E0B8
:103930000E94B41780E090E00C94CA170E944D22B8
:103940000C948A1C0E94CA21E92FE295EF70F0E0E6
:103950003297EE30F105B8F4E055FF4F0C94BC2BD4
:10396000803F59F018F4803E70F407C0843F59F44A
:1039700004C0803E10F0813F31F481E0089593FB54
:10398000882780F9089580E00895CF93DF9300D0D1
:1039900000D01F92CDB7DEB70F900F900F900F9011
:1039A0000F90DF91CF910895CF93DF9300D000D097
:1039B00000D0CDB7DEB726960FB6F894DEBF0FBEA7
:1039C000CDBFDF91CF9108951F93CF93DF93C09127
:1039D000390216E080913A02C81799F0D0E01C9F96
:1039E000F0011D9FF00D1124E55CFD4F40815181D8
:1039F00062817381848195810E94D41C2196C77055
:103A0000E9CFDF91CF911F91089540916B025091C2
:103A10006C0260916D0270916E0280916F029091C4
:103A200070020C94D41CCF938091700282958F7099
:103A300009F05FC080916D02882309F45AC020917B
:103A40003902A0913A0260916B0270916C028091F0
:103A50006E0290916F0231E06F3F09F030E0B32FBA
:103A6000C6E02A1709F445C0009721F07F3F21F4F2
:103A70004B2F03C041E001C040E030E040FD35C0C5
:103A8000C29FF001C39FF00D1124E55CFD4F418101
:103A900074132BC04081641328C04281411125C09A
:103AA000438154814817590710F441505109481B6C
:103AB000590B483C5105C8F4809170028F708061A9
:103AC0008093700286E0829FF001839FF00D1124A5
:103AD000E05CFD4F80818F70806180838BE692E097
:103AE0000E945E1CCF910C94E41C2F5F3F4F277007
:103AF000B8CFCF910895CF92DF92EF92FF920F93BC
:103B00001F93CF93DF93CDB7DEB762970FB6F894CC
:103B1000DEBF0FBECDBF8C0185E0F801DE011D9632
:103B200001900D928A95E1F7D8014C9111965C9124
:103B3000119712966C9112971396ED90FC90149732
:103B400070916B02E0916C0220916E0230916F02D5
:103B50002115310531F0EF3F31F481E07F3F19F459
:103B600003C081E001C080E0B82FB170CB2E80FD92
:103B70006CC1D0906D02DD2009F4F5C0F0917002A7
:103B8000E216F30638F0C701821B930B883C9105BF
:103B900048F09BC0209530952E0D3F1D283C3105E7
:103BA00008F093C08F2F807F09F052C0E51314C036
:103BB000741312C0D62E61110FC0FF70F061F09324
:103BC00070020E94051D8BE692E00E945E1C8091AF
:103BD0007002F80185836CC1EF2831F05F3F31F44A
:103BE00081E04F3F19F403C081E001C080E080FD17
:103BF00003C081E0862701C080E0F82FF170FF2E1E
:103C000080FF1CC08091390220913A0236E0821771
:103C100009F428C190E0389FF001399FF00D11247C
:103C2000E55CFD4F7181571306C07081471303C0D7
:103C30007281671303C001968770E9CFD62E662381
:103C400009F436C18091700281608093700253C084
:103C5000E51308C0741306C0611104C0D80115969D
:103C6000FC93AEC04D875E878D859E856A8B0E94D2
:103C7000A21C6A89882329F1D62E662311F120918E
:103C80007002822F82958F7090E002970CF460C0D2
:103C900080916B0290916C0298878F831986FB86C6
:103CA000EA862C87CE01079651C0E51731F14D8782
:103CB0005E878D859E856A8B0E94A21C6A89811110
:103CC0002EC0C8010E945E1CA4C08F2F807F69F7A0
:103CD0007E2DF98AE88A89890E94C51C8BE692E0CC
:103CE0000E945E1CEBE6F2E086E0DF011D928A9501
:103CF000E9F70E94051DD12CDBC07413D8CF6111E8
:103D0000D6CFD8011596FC93C8010E945E1CEBE645
:103D1000F2E086E0DF011D928A95E9F7C9C0D62E50
:103D2000662379F220917002822F82958F7090E045
:103D3000029774F080916B0290916C029A83898350
:103D40001B82FD82EC822E83CE0101960E945E1CB6
:103D500086E0F801ABE6B2E001900D928A95E1F7BA
:103D60000E94131D6FC0E216F30628F0C701821BE4
:103D7000930B9C0104C0209530952E0D3F1D283CCF
:103D8000310508F052C0D62E662309F49ACFE51308
:103D90002CC074132AC08091700280FD1DC0982F22
:103DA00092959F70C9F0D80115968C9315979F3006
:103DB00039F09F5F9295907F8F70892B15968C9329
:103DC000C8010E945E1C86E0F801ABE6B2E00190FB
:103DD0000D928A95E1F736C086E0F801ABE6B2E0D5
:103DE00001900D928A95E1F763C04D875E878D85BE
:103DF0009E850E94A21C882379F086E0F801ABE63C
:103E0000B2E001900D928A95E1F70E94131D0E9485
:103E1000051DDD24D3944CC0809170028160809395
:103E20007002C8010E945E1C43C07E2DF98AE88A98
:103E300089890E94C51CEBE6F2E086E0DF011D9255
:103E40008A95E9F70E94051D33C0662309F439CF2E
:103E50004D875E878D859E850E94A21C882309F46C
:103E600030CFCBCF4D875E878D859E850E94CA213E
:103E7000292F22952F7030E0223031052CF49F70CD
:103E800041F0811106C00CC0243031052CF49F7024
:103E900049F4805E883020F0C8010E945E1CCF2C5F
:103EA000DC2C06C0D80115969C91907F91F7F8CF35
:103EB0008D2D62960FB6F894DEBF0FBECDBFDF9199
:103EC000CF911F910F91FF90EF90DF90CF900895C9
:103ED0001F93CF93DF93CDB7DEB72C970FB6F8942F
:103EE000DEBF0FBECDBF4F83588769877A878B8728
:103EF0009C87CE0107960E947B1D8823C1F02F81ED
:103F000038858A859B85892B31F03F3F11F080E011
:103F100003C02F3FE1F781E0811147C04F815885F1
:103F200069857A858B859C850E94D41C3EC086E07D
:103F3000FE013796DE01119601900D928A95E1F708
:103F4000FF81E8854A855B854115510531F0EF3FDA
:103F500031F481E0FF3F19F403C081E001C080E04B
:103F600080FD23C020913A0230E0C901019687709C
:103F700099276091390270E086179707F1F1F9836C
:103F8000EA835D834C8396E0929FD001939FB00DAE
:103F90001124A55CBD4FFE01319601900D929A95BA
:103FA000E1F780933A020E94E41C16E08091390206
:103FB00090913A02891779F1189FC0011124855C0C
:103FC0009D4F0E947B1D882331F1E09139021E9F95
:103FD000F0011124E55CFD4F4081518162817381C4
:103FE000848195810E94D41C8091390290E00196D1
:103FF0008770992780933902D9CF0E949E1C109216
:104000003A0210923902EBE6F2E086E0DF011D92FF
:104010008A95E9F7CACF2C960FB6F894DEBF0FBE8B
:10402000CDBFDF91CF911F910895EF92FF920F9333
:104030001F93CF93DF939C01009709F471C0F12C7B
:10404000EE24E394E9012196F9018491843740F448
:10405000843008F056C0813081F0823021F160C098
:10406000853709F449C0C0F19CE7980F903708F0F4
:1040700057C08F770E94AB1946C089010E5F1F4F52
:10408000FE01849190E2980F983050F48770FE2DD5
:1040900001C0FF0F8A95EAF78F2F0E94602215C09A
:1040A0000E94CE1814C089010E5F1F4FFE0184913B
:1040B00090E2980F983068F48770FE2D01C0FF0FD2
:1040C0008A95EAF78F2F0E9466220E940A22E80151
:1040D0001AC00E94AB19FBCF2E5F3F4FFE01C49167
:1040E000CC2341F08FE99FE00197F1F700C0000079
:1040F000C150F6CFE90107C0FE01F490E901229614
:1041000002C00E94CE188F2D882341F0EFE9FFE016
:104110003197F1F700C000008150F6CF9E0192CF99
:10412000DF91CF911F910F91FF90EF900895089527
:104130000E949720609375027093760280937702B5
:10414000909378020C948A1C08950C9498200F93F5
:104150001F930091750210917602209177023091A1
:104160007802602B712B822B932B1F910F910C9453
:1041700098200F931F930091750210917602209161
:1041800077023091780260237123822393231F9159
:104190000F910C9498200F931F930091750210912A
:1041A000760220917702309178026027712782276A
:1041B00093271F910F910C94982008950E94DD2061
:1041C00060937102709372028093730290937402F1
:1041D0000C948A1C60E070E0CB010C94DE2041E07E
:1041E00050E060E070E004C0440F551F661F771F69
:1041F0008A95D2F7CB01BA010C94DE2041E050E061
:1042000060E070E004C0440F551F661F771F8A9559
:10421000D2F78091710290917202A0917302B091D5
:104220007402482B592B6A2B7B2BCB01BA010C94BF
:10423000DE2041E050E060E070E004C0440F551F14
:10424000661F771F8A95D2F74095509560957095B7
:104250008091710290917202A0917302B0917402E8
:10426000482359236A237B23CB01BA010C94DE2017
:1042700041E050E060E070E004C0440F551F661F4D
:10428000771F8A95D2F78091710290917202A09166
:104290007302B0917402482759276A277B27CB0104
:1042A000BA010C94DE200F931F93009171021091BC
:1042B00072022091730230917402602B712B822B59
:1042C000932B1F910F910C94DE200F931F9300915D
:1042D0007102109172022091730230917402602376
:1042E0007123822393231F910F910C94DE200F934F
:1042F0001F9300917102109172022091730230910C
:10430000740260277127822793271F910F910C94C5
:10431000DE200895CF92DF92EF92FF920F931F93CA
:10432000CF93DF93EC01C0907502D0907602E090BD
:104330007702F09078028091710290917202A091C0
:104340007302B0917402C82AD92AEA2AFB2A0FE123
:1043500010E0B701A601002E04C076956795579529
:1043600047950A94D2F740FD05C00150110988F71E
:1043700080E007C0BE01802F0E9401140197A9F3BD
:10438000802FDF91CF911F910F91FF90EF90DF90E1
:10439000CF900895CF93DF93EC010E948A21BE0154
:1043A0000E940114DF91CF910895CB010E94CA2190
:1043B00008958091790285958595859508958091D8
:1043C00079028770089598E0899F90011124622BEB
:1043D000609379020C94FE204091790280958423A9
:1043E00080937902982F977069F450E0282F332733
:1043F00027FD30954217530729F0859585958595BA
:104400000C941921089590917902977081E009F434
:1044100080E00895E0912A01F0912B0180919D02A6
:104420008083E0912A01F0912B01808190919C0280
:10443000892B8083E0912A01F0912B01808190915A
:104440009B02892B808390917A02992381F0E091DD
:104450002A01F0912B018081892B808380912A0190
:1044600090912B010E94B222811110927A028091C8
:104470002A0190912B010C94A91780919D02089517
:1044800090919D02982B90939D0208958095909114
:104490009D02982390939D02089510929D02089585
:1044A00090919C02982B90939C02089580959091F6
:1044B0009C02982390939C02089510929C02089568
:1044C00090919B02982B90939B02089580959091D8
:1044D0009B02982390939B02089510929B0208954B
:1044E00080937A02089510927A0208956DEE7EEF1D
:1044F00080E090E00E94602C60E082E090E00E940A
:104500004E2C60E083E090E00E944E2C60E084E05E
:1045100090E00E944E2C60E085E090E00C944E2CE0
:104520006FEF7FEF80E090E00C94602C80E090E0F3
:104530000E94382C21E08D3E9E4F09F020E0822F12
:10454000089582E090E00C94302C83E090E00C948D
:10455000302C84E090E00C94302C682F84E090E0C4
:104560000C944E2C20E030E040E0FC01E20FF31F01
:10457000518151114F5F2F5F3F4F2F313105A9F707
:10458000842F089520E030E04FEFFC01E20FF31F8D
:104590005281561799F04F3F19F4511101C0422F23
:1045A0002F5F3F4F2E31310581F74F3F39F0FC012E
:1045B000E40FF11D47FDFA9562830895089520E008
:1045C00030E0FC01E20FF31F4281461301C012826A
:1045D0002F5F3F4F2E313105A1F70895262F2695E5
:1045E000269526952F3170F4FC01E20FF11D6770BE
:1045F00021E030E0062E01C0220F0A94EAF7818103
:10460000822B81830895262F2695269526952F3176
:1046100078F4FC01E20FF11D677021E030E0062E16
:1046200001C0220F0A94EAF7209581812823218373
:10463000089520913601222329F02091750427FD49
:104640000C94EE220C94C22220913601222329F0F0
:104650002091750427FD0C9403230C94DF2220E0A5
:1046600030E0FC01E20FF31F11822F5F3F4F2F312B
:104670003105B9F708950C94411208950895CF9328
:104680000E943D230E94E2160E943E23C0E08C2F30
:104690000E948E17892B29F4CF5FC530C1F780E0C7
:1046A00001C081E0CF9108950E9444120E949E1C97
:1046B0000E949D170C94FC1382E084BD93E095BD8D
:1046C0009AEF97BD80936E0008952FB7F89480916C
:1046D000710490917204A0917304B09174042FBF7F
:1046E0000895CF92DF92EF92FF920F931F932FB70F
:1046F000F894409171045091720460917304709128
:1047000074042FBF6A017B01EE24FF248C0120E09A
:1047100030E0C016D106E206F30610F4415051090C
:10472000481B590BCA011F910F91FF90EF90DF902A
:10473000CF90089578941F920F920FB60F92112484
:104740008F939F93AF93BF93809171049091720464
:10475000A0917304B09174040196A11DB11D8093C2
:10476000710490937204A0937304B0937404BF9186
:10477000AF919F918F910F900FBE0F901F90189542
:104780000E949728F8942FEF87EA91E62150804005
:104790009040E1F700C0000087E090EBDC018093DF
:1047A000840490938504A0938604B09387042CE03E
:1047B00088E190E00FB6F894A895809360000FBE52
:1047C00020936000FFCF0E949622811102C00E94B8
:1047D00076220E94A12280939E020E94A92290E04C
:1047E00090937604809375040E94A522682F70E050
:1047F00080E090E00C94A5208091BF020895089578
:104800000F931F93CF93DF9300D01F92CDB7DEB7E6
:104810008C010E949F26823011F0843021F583E0C4
:1048200089831B830A8382E08093E9008FEF909154
:10483000E800815095FD06C095ED9A95F1F70000CE
:104840008111F5CF8091E80085FF0DC040E050E078
:1048500063E070E0CE0101960E94BC268091E800E2
:104860008E778093E8000F900F900F90DF91CF919B
:104870001F910F910895CF93DF9300D01F92CDB772
:10488000DEB720917B04243029F522E0298380586B
:1048900091099B838A832093E9008FEF9091E80030
:1048A000815095FD06C095ED9A95F1F700008111B4
:1048B000F5CF8091E80085FF0DC040E050E063E057
:1048C00070E0CE0101960E94BC268091E8008E77B0
:1048D0008093E8000F900F900F90DF91CF91089593
:1048E000CF93DF93EC010E949F26823019F0843031
:1048F00009F047C0809136018823E1F0809175046A
:1049000087FF18C085E08093E9008FEF9091E80061
:10491000815095FD06C095E19A95F1F7000081114F
:10492000F5CF8091E80085FF2CC040E050E060E2C8
:1049300070E017C081E08093E9008FEF9091E8006C
:10494000815095FD06C095ED9A95F1F70000811113
:10495000F5CF8091E80085FF14C040E050E068E0AA
:1049600070E0CE010E94BC268091E8008E77809393
:10497000E80080E2FE01AFE9B2E001900D928A9575
:10498000E1F7DF91CF910895CF93603229F520911F
:104990007B04243009F52091E9002F703091EC0060
:1049A00030FF02C030E801C030E0C32FC22B23E04B
:1049B0002093E9002091E80020FF0BC040E050E088
:1049C00060E270E00E94BC268091E8008E778093C0
:1049D000E800CF70C093E900CF91089580917A04E8
:1049E000811109C00E9497280E94F4288091E2005A
:1049F00084608093E200089510927A0408950895E7
:104A000008950C94542342E061EC81E00E94112847
:104A100042E061EC82E00E94112842E261EC83E016
:104A20000E94112842E260EC84E00E94112842E2D8
:104A300061EC85E00C94112880917D04833009F4A9
:104A400055C030F4813071F0823009F48EC0089581
:104A50008A3009F47AC08B3009F460C0893009F0DB
:104A60009CC020C080917C04813A09F096C080915E
:104A7000E800877F8093E800809180049091810412
:104A8000892B21F060E080E090E003C060E28FE9D4
:104A900092E070E00E944E278091E8008B7780932F
:104AA000E800089580917C04813209F076C08091FD
:104AB000800490918104009719F0039709F06DC06C
:104AC0008091E800877F8093E8008091E80082FD74
:104AD00005C080917B048111F8CF5FC08091F10007
:104AE0008093BF028091E8008B7753C080917C0453
:104AF000813A09F052C08091800490918104892B01
:104B000009F04BC08091E800877F8093E800809196
:104B1000E80080FFFCCF8091360136C080917C0494
:104B20008132D9F58091800490918104892BA9F577
:104B30008091E800877F8093E8000E94462880915A
:104B40007E04809336010C949E1C80917C048132FB
:104B500021F58091E800877F8093E8000E94462835
:104B600080917F048093C002089580917C04813AF3
:104B7000A1F48091E800877F8093E8008091E800AD
:104B800080FFFCCF8091C0028093F1008091E8000B
:104B90008E778093E8000C9446280895CF93DF9396
:104BA000CDB7DEB7A0970FB6F894DEBF0FBECDBF6E
:104BB00084B7877F84BF88E10FB6F8948093600044
:104BC000109260000FBE80E8809361001092610037
:104BD0000E94E1170E9497280E94F4288091E20029
:104BE00084608093E20078940E94772B0E94E31700
:104BF0008CE291E00E94981780917B04853069F4E3
:104C00000E943B23809179048823B1F30E943F23C3
:104C1000882391F30E94A626EFCF0E94E917809186
:104C20007B04843049F78093E9008091E80082FF9B
:104C3000E3CF8091E80085FF0AC040E050E060E2E9
:104C400070E0CE0101960E94052791E001C090E03E
:104C50008091E8008B778093E800992369F260E205
:104C6000CE0101960E94CA10C7CF292F33272330C7
:104C70003105A9F06CF42130310509F442C022302D
:104C8000310509F043C084E790E026EB36E042C0EE
:104C900021323105C9F02232310519F137C0992787
:104CA0008130910541F08230910541F0892B71F5F9
:104CB000E2EBF6E005C0E2EAF6E002C0E2E9F6E087
:104CC000849190E09F0126C064307105F8F4FB01E7
:104CD000EE0FFF1FEE53FE4F2081318189E090E0FF
:104CE00019C06430710590F4FB01EE0FFF1FE6540C
:104CF000FE4F20813181FB01EA54FE4F808190E01C
:104D000009C082E190E02AE237E004C080E090E050
:104D100020E030E0FA013183208308950895CF9395
:104D2000C82F0E948E26C093C102CF910895809112
:104D30007B04843011F482E0089581E0089580912D
:104D4000C102811102C00C949726089580E189BDAB
:104D500082E189BD09B400FEFDCF8091D8008F7D2E
:104D60008093D8008091E00082608093E000809181
:104D7000E00081FDFCCF0895CF92DF92EF92FF9289
:104D80000F931F93CF93DF937C018B01EA010E9465
:104D90006728811131C0209731F088819981081BE3
:104DA000190BE80EF91EC12CD12C0115110519F1B2
:104DB0008091E80085FD14C08091E8008E77809393
:104DC000E800209741F0888199818C0D9D1D998381
:104DD000888385E011C00E946728882331F30CC0C6
:104DE000F70181917F018093F10001501109FFEFDC
:104DF000CF1ADF0ADACF80E0DF91CF911F910F91B8
:104E0000FF90EF90DF90CF900895CF92DF92EF92D6
:104E1000FF920F931F93CF93DF937C018B01EA01E5
:104E20000E946728811131C0209731F088819981D3
:104E3000081B190BE80EF91EC12CD12C0115110508
:104E400019F18091E80085FD14C08091E8008B770E
:104E50008093E800209741F0888199818C0D9D1DF9
:104E60009983888385E011C00E946728882331F3E5
:104E70000CC08091F100F70181937F01015011096D
:104E8000FFEFCF1ADF0ADACF80E0DF91CF911F91D9
:104E90000F91FF90EF90DF90CF90089520918204C2
:104EA000309183042617370748F06115710539F4EE
:104EB0002091E8002E772093E80001C0B901FC01A1
:104EC00020E061157105B9F180917B04882309F414
:104ED00040C0853009F43FC08091E80083FD3DC0AB
:104EE0008091E80082FF06C08091E80082FF26C022
:104EF00080E008958091E80080FFE3CF2091F300E7
:104F00008091F20090E0922B6115710551F088308C
:104F1000910538F421912093F100615071090196B7
:104F2000F3CF21E0089709F020E08091E8008E7728
:104F30008093E800C6CF2111C7CFD6CF80917B04E4
:104F4000882339F0853039F08091E80083FFCCCF99
:104F500004C082E0089583E0089581E008952091DF
:104F60008204309183042617370748F061157105D4
:104F700039F42091E8002E772093E80001C0B901B0
:104F8000FC0120E061157105C1F180917B0488234B
:104F900009F441C0853009F440C08091E80083FDE8
:104FA0003EC08091E80082FF06C08091E80082FF49
:104FB00027C080E008958091E80080FFE3CF209132
:104FC000F3008091F20090E0922B6115710559F089
:104FD0008830910540F424912093F100319661507E
:104FE00071090196F2CF21E0089709F020E0809145
:104FF000E8008E778093E800C5CF2111C6CFD5CFCA
:1050000080917B04882339F0853039F08091E80065
:1050100083FFCBCF04C082E0089583E0089581E050
:105020000895982F973058F59093E900981739F024
:105030007091EC002091ED005091F00003C0242FFE
:10504000762F50E021FF19C03091EB003E7F309366
:10505000EB003091ED003D7F3093ED003091EB009F
:1050600031603093EB007093EC002093ED0050938F
:10507000F0002091EE0027FF07C09F5FD3CF8F7015
:105080008093E90081E0089580E0089580917C0498
:1050900087FD05C08091E80080FF0EC012C080919E
:1050A000E80082FD05C080917B048111F8CF08954E
:1050B0008091E8008B7708C080917B048111EACF52
:1050C00008958091E8008E778093E800089580919C
:1050D000E4009091E50045E62091EC0020FF21C01E
:1050E0002091E80020FD21C020917B04222389F03B
:1050F000253089F02091EB0025FD0FC02091E400C0
:105100003091E5002817390739F3415041F0C901C2
:10511000E3CF82E0089583E0089581E0089584E07C
:1051200008952091E80022FFDFCF80E008950E94DB
:1051300005290E940D29E0EEF0E0808181608083E6
:10514000E8EDF0E080818F77808319BCA7EDB0E0B7
:105150008C918E7F8C9380818F7E808310927A04D5
:1051600008950F931F93CF93DF930E9405290E9408
:105170000D29C8EDD0E088818F7788838881806889
:10518000888388818F7D888319BC10927B0410925C
:105190007704109279041092780400EE10E0F80180
:1051A00080818B7F808388818160888342E060E09A
:1051B00080E00E941128E1EEF0E080818E7F808304
:1051C000E2EEF0E08081816080838081886080836E
:1051D000F80180818E7F8083888180618883DF9160
:1051E000CF911F910F910895E8EDF0E080818F7EBF
:1051F0008083E7EDF0E080818160808384E082BF7E
:1052000081E080937A040C94B128E8EDF0E080818D
:105210008E7F80831092E20008951092DA0010923F
:10522000E10008951F920F920FB60F9211242F9351
:105230003F934F935F936F937F938F939F93AF931E
:10524000BF93EF93FF938091E10082FF0BC08091A9
:10525000E20082FF07C08091E1008B7F8093E10034
:105260000E94762B8091DA0080FF1FC08091D800C9
:1052700080FF1BC08091DA008E7F8093DA008091DE
:10528000D90080FF0DC080E189BD82E189BD09B4EC
:1052900000FEFDCF81E080937B040E94EE2405C0D8
:1052A00019BC10927B040E94FC248091E10080FFD5
:1052B00019C08091E20080FF15C08091E2008E7FCE
:1052C0008093E2008091E20080618093E20080910F
:1052D000D80080628093D80019BC85E080937B045D
:1052E0000E9400258091E10084FF30C08091E2009F
:1052F00084FF2CC080E189BD82E189BD09B400FE34
:10530000FDCF8091D8008F7D8093D8008091E100FF
:105310008F7E8093E1008091E2008F7E8093E20097
:105320008091E20081608093E2008091770488237D
:1053300011F084E007C08091E30087FF02C083E0A2
:1053400001C081E080937B040E9401258091E100EF
:1053500083FF29C08091E20083FF25C08091E10096
:10536000877F8093E10082E080937B041092770432
:105370008091E1008E7F8093E1008091E2008E7F3A
:105380008093E2008091E20080618093E20042E03D
:1053900060E080E00E9411288091F0008860809396
:1053A000F0000E94FF24FF91EF91BF91AF919F9178
:1053B0008F917F916F915F914F913F912F910F90BE
:1053C0000FBE0F901F9018951F920F920FB60F925D
:1053D00011242F933F934F935F936F937F938F93FA
:1053E0009F93AF93BF93CF93EF93FF93C091E90047
:1053F000CF708091EC001092E9008091F000877FDF
:105400008093F00078940E94202A1092E900809105
:10541000F00088608093F000C093E900FF91EF9165
:10542000CF91BF91AF919F918F917F916F915F913C
:105430004F913F912F910F900FBE0F901F90189595
:105440001F93CF93DF93CDB7DEB7AA970FB6F8942B
:10545000DEBF0FBECDBFECE7F4E08091F100819399
:1054600024E0E438F207C9F70E941C258091E80087
:1054700083FF24C120917C0430917D04832F90E030
:105480008A30910508F01AC1FC01E254FF4F0C94D8
:10549000BC2B203821F0223809F010C108C08091BF
:1054A000780490917904992389F082600FC08091EB
:1054B00080048F70873008F001C18093E9008091EB
:1054C000EB0085FB882780F91092E9009091E800B5
:1054D000977F9093E8008093F1001092F100CCC088
:1054E000822F8D7F09F0EAC0222319F0223061F06B
:1054F000E5C080917E04813009F0E0C0333009F0CE
:1055000080E0809379042AC080917E04811126C0B6
:10551000209180042F708FEF820F863008F0CEC06C
:105520002093E9008091EB0080FF18C08091EB0090
:10553000333011F4806210C080618093EB0081E011
:1055400090E001C0880F2A95EAF78093EA00109254
:10555000EA008091EB0088608093EB001092E900F4
:105560008091E800877F8093E8000E944628A6C0CB
:105570002111A4C010917E041F778091E3008078F0
:10558000812B8093E3008091E800877F8093E8007F
:105590000E9446288091E80080FFFCCF8091E300C4
:1055A00080688093E300112311F083E001C082E062
:1055B00080937B0483C02058223008F07FC0809104
:1055C0007E0490917F048C3D23E0920779F583E07F
:1055D0008A838AE289834FB7F894DE01139620E02C
:1055E0003EE051E2E32FF0E050935700E49120FFBA
:1055F00003C0E295EF703F5FEF708E2F90E0EA30CE
:1056000010F0C79601C0C0968D939D932F5F2431F3
:1056100049F74FBF8091E800877F8093E8006AE2F6
:1056200070E0CE0101960E944E2715C06091800463
:1056300070918104AE014F5F5F4F0E943526009745
:10564000E9F12091E800277F2093E800BC018981DF
:105650009A810E94AF278091E8008B778093E800C1
:105660002DC0203859F58091E800877F8093E800AD
:10567000809177048093F1008091E8008E7773CF5A
:1056800021111CC090917E049230C0F48091E800FA
:10569000877F8093E800909377040E94462880914A
:1056A0007704811104C08091E30087FF02C084E089
:1056B00001C081E080937B040E9403258091E80073
:1056C00083FF0AC08091E800877F8093E800809183
:1056D000EB0080628093EB00AA960FB6F894DEBFD1
:1056E0000FBECDBFDF91CF911F9108950895CF9345
:1056F00080917B048823B1F08091E9008F709091B4
:10570000EC0090FF02C090E801C090E0C92FC82BC8
:105710001092E9008091E80083FD0E94202ACF705A
:10572000C093E900CF910895AA1BBB1B51E107C0AC
:10573000AA1FBB1FA617B70710F0A61BB70B881F21
:10574000991F5A95A9F780959095BC01CD010895B0
:1057500097FB072E16F4009407D077FD09D00E941E
:10576000942B07FC05D03EF4909581959F4F0895AA
:10577000709561957F4F0895EE0FFF1F0590F4918E
:10578000E02D09948F929F92AF92BF92CF92DF92B9
:10579000EF92FF92CF93DF93EC01688179818A8148
:1057A0009B81611571058105910521F464E279ED14
:1057B0008BE597E02DE133EF41E050E00E94792C3A
:1057C00049015A019B01AC01A7EAB1E40E94662C91
:1057D0006B017C01ACEEB4EFA50194010E94742C26
:1057E000C60ED71EE81EF91EF7FE06C081E0C81AD5
:1057F000D108E10880E8F80AC882D982EA82FB82EF
:10580000C6019F77DF91CF91FF90EF90DF90CF900F
:10581000BF90AF909F908F9008950E94C22B0895E3
:1058200080E091E00E94C22B0895A0E0B0E0809358
:10583000000190930101A0930201B0930301089528
:10584000DC01CB01FC01F999FECF06C0F2BDE1BD40
:10585000F89A319600B40D9241505040B8F708952F
:10586000F999FECF92BD81BDF89A992780B5089528
:10587000A8E1B0E042E050E00C94222CDC01A40F3F
:10588000B51F4150504048F0CB01840F951F2E9119
:105890000E944F2C41505040D0F70895262FF9997F
:1058A000FECF92BD81BDF89A019700B4021639F07F
:1058B0001FBA20BD0FB6F894FA9AF99A0FBE089550
:1058C0000196272F0E944F2C0C944E2C0E94982C4E
:1058D000A59F900DB49F900DA49F800D911D112444
:1058E0000895B7FF0C94662C0E94662C821B930BC4
:1058F0000895052E97FB1EF400940E94902C57FDEE
:1059000007D00E94A72C07FC03D04EF40C94902CD7
:1059100050954095309521953F4F4F4F5F4F0895DB
:1059200090958095709561957F4F8F4F9F4F08950B
:10593000A29FB001B39FC001A39F700D811D1124D0
:10594000911DB29F700D811D1124911D0895A1E23A
:105950001A2EAA1BBB1BFD010DC0AA1FBB1FEE1FE9
:10596000FF1FA217B307E407F50720F0A21BB30B34
:10597000E40BF50B661F771F881F991F1A9469F7B0
:1059800060957095809590959B01AC01BD01CF010C
:065990000895F894FFCF1A
:1059960001000000FF0000FFFF0000FFFF7FFFFF88
:1059A6000000FFFF0000FFFF0000FFFF0000FFFFF9
:1059B6000120010001100130073C7B02FC2370240A
:1059C600FF233B240024010200040006000000041B
:1059D60001060100010201060200020202040200A1
:1059E6000302030403000402040404000502050480
:1059F6000500060206040600070207040710000E4B
:105A0600000C0010010E010C0110020E020C021017
:105A1600030E030C0310040E040C0410050E050CF3
:105A26000510060E060A0510070C060A060E070CD8
:105A3600070A07F595313233939267663635349700
:105A460096F0F1F4F6F740223639CD077507970739
:0A5A56003C07C806FA06E1061A072D
:00000001FF
