:100000000C943A040C947E040C947E040C947E04AC
:100010000C947E040C947E040C947E040C947E0458
:100020000C947E040C947E040C94DB2B0C94AD2C6D
:100030000C947E040C947E040C947E040C947E0438
:100040000C947E040C947E040C947E040C947E0428
:100050000C947E040C9424240C947E040C947E0452
:100060000C947E040C947E040C947E040C947E0408
:100070000C947E040C947E040C947E040C947E04F8
:100080000C94820B0C947E040C947E040C947E04DD
:100090000C9432100C947E040C947E040C947E0418
:1000A0000C947E040C947E040C947E04180C1B0C9F
:1000B0001E0C210C240C270C2A0C2D0C300C330C9C
:1000C000360C0D1112111A112211251129112F119F
:1000D0003711B811BE11C411CA11D011D611DC11DB
:1000E000E211E711EC11F111F611FB1100120512EA
:1000F0000B12131319131D132013241328132C137D
:100100003013351339133D134113441348134C1363
:100110005013541359139C1A9C1AD61AD61A151B2D
:10012000371BA61CA61C7D1BA61C241C241C9A1C69
:10013000A61CA61CA11C311C311C311C311C311CFD
:10014000311C311C311C311C311C311C311C311C47
:10015000311C311C311C431C531C5A1C611C6B1C70
:100160003A1D3A1D4D1D4D1D431D4D1D4D1D4D1D6F
:100170003A1D3A1D491D4D1D4D1D491D122D392D8C
:10018000272E392D272E812DA42D272EFA2D092E2D
:1001900011100F0E0D0C0B0A091213141516070679
:1001A0000504030201001B1C1D1E1F2008323130F4
:1001B0002F2E2D363738393A3B1734332928272646
:1001C000253F4041423C3D3E352C2B2AFFFFFF247A
:1001D000FF43444546473A814681508B599D60B55F
:1001E00065D069EE6DFF80F73AFF40FF46FF4BFF99
:1001F00050FF55FF59FF5DFF60FF35FF30FF2BFFBC
:1002000027FF22FF20FFFFFFFFFFFFFF308B279D0F
:1002100020B51BD017EE13FFFFFFFFFFFFFFBCFF52
:10022000B783AD8FA5A39FBC9AD8ACFCAAFFA5FF4E
:100230008009802E80528077809B80C096F493FF47
:10024000A1FF001B00400065008900AEFFE9E4C982
:10025000EBFFEDFFC380CE88D798DEAFCDEAD1FFAC
:10026000D6FFDBFFDFFF78106810581048103810F9
:100270002810181004100420800070006000500046
:10028000400030002000100000009000A000B000EE
:10029000C000D800E000FFFFFFFFFFFF88109810AC
:1002A000A810B810C810DC10FFFFFFFFFFFF66406A
:1002B000643054304430343024303C402B401740BC
:1002C0006C205C204C203C202C201C201430023060
:1002D00003407C208C209C20AC20BC20D620B43055
:1002E000D230E030743084309430A4309040A1405B
:1002F000B540C940DD4000000000000101010101DE
:1003000001010101020202020202020202030303CE
:10031000030303030304040404040405050505059D
:100320000606060606070707070808080809090958
:100330000A0A0A0A0B0B0B0C0C0C0D0D0D0E0E0FFE
:100340000F0F10101111111212131314141515168A
:10035000161717181819191A1A1B1C1C1D1D1E1FF9
:100360001F20202122222324252526272728292A49
:100370002B2B2C2D2E2F2F30313233343536363770
:1003800038393A3B3C3D3E3F404142434446474872
:10039000494A4B4C4D4F50515253555657585A5B42
:1003A0005C5E5F606263646667696A6C6D6E7071E3
:1003B00073747678797B7C7E8081838486888A8B4F
:1003C0008D8F91929496989A9B9D9FA1A3A5A7A982
:1003D000ABADAFB1B3B5B7B9BBBDBFC1C4C6C8CA79
:1003E000CCCFD1D3D6D8DADCDFE1E4E6E8EBEDF030
:1003F000F2F5F7FAFCFF545556464748494A4B84F4
:100400008586878889797A7B5C5D5E4E4F50515234
:10041000538C8D8E8F909181828344453536373849
:10042000393A3B9495969798999A8A8B4C4D3D3ED4
:100430003F404142439C9D9E9FA0A1A292933424A1
:1004400025262728292A2BA4A5A6A7A8A9AAAB9BBD
:100450003C2C2D2E2F30313233ACADAEAFB0B1B21B
:10046000B3A329001E001F0020002100220023004A
:1004700024002500260027002D002E002A002B0036
:1004800014001A000800150017001C0018000C00CA
:10049000120013002F003000310039000400160054
:1004A000070009000A000B000D000E000F003300CA
:1004B000340028000000E10000001D001B000600C1
:1004C0001900050011001000360037003800E50063
:1004D0000000E000E300E200000000000000000077
:1004E0002C0000000000E6000E5F0F5FE400350006
:1004F0003A003B003C003D003E003F004000410010
:1005000042004300440045004C0039000100520005
:100510000100010001000100010049000100460046
:100520004700480001000100500051004F00010049
:10053000010001000100010001004A004B00010020
:1005400001000100010001000100010001000100A3
:10055000AA00A900A8004D004E0001000100010002
:100560000100010001000100010001000100010083
:100570000100010001000100010001000100010073
:100580000100010001000100010001000100010063
:100590000100010001000100010001000100010053
:1005A0000100010001000100010001000100010043
:1005B0000100010001000100010001000100010033
:1005C0000100010001000100010001000100010023
:1005D0000100010001000100010001000100010013
:1005E0000100010001000100010001000100010003
:1005F00001000100010001000100010001000100F3
:100600000100010001000100035F025F075F065F58
:100610000B5F0A5F0100010001000100015F005F44
:100620000100010001000100095F085F0D5F0C5F20
:100630000100010001000100055F045F01000100ED
:1006400001000100010001000100010001000100A2
:100650000100010001000100010001000100010092
:100660000100010001000100010001000100010082
:100670000100010001000100010001000100010072
:100680000100010001000100010001000100010062
:1006900001000E035A00650061006C003600300056
:1006A00000000E035A00650061006C00500043001A
:1006B00000000403090409028D00050100A0FA09E5
:1006C0000400000103010100092111010001224081
:1006D000000705810308000A090402000103010262
:1006E00000092111010001224D00070582030800C5
:1006F0000A0904030001030000000921110100019F
:100700002236000705830308000A090401000203DA
:1007100000000009211101000122220007058403C5
:10072000200001070505032000010904040001035E
:10073000000000092111010001223900070586038C
:100740002000011201100100000008EDFE606001B0
:10075000000102000105010906A101050719E029B0
:10076000E715002501950875018102050819012981
:10077000059505750191029501750391010507190C
:100780000029F71500250195F875018102C0066062
:10079000FF0961A1010962150026FF009520750877
:1007A00081020963150026FF00952075089102C09B
:1007B00005010980A10185021601002603001A81A6
:1007C000002A8300751095018100C0050C0901A164
:1007D000018503160100269C021A01002A9C02755D
:1007E0001095018100C005010902A1010901A100C4
:1007F00005091901290515002501950575018102D5
:100800009501750381010501093009311581257FA5
:1008100095027508810609381581257F95017508AF
:100820008106050C0A38021581257F95017508811E
:1008300006C0C005010906A101050719E029E71551
:100840000025019508750181029501750881010552
:100850000819012905950575019102950175039106
:10086000010507190029FF150026FF0095067508E8
:100870008100C00011241FBECFEFDAE0DEBFCDBF84
:1008800004B603FE24C080919B0490919C04A09127
:100890009D04B0919E048730904BA740B04BB9F4B3
:1008A00010929B0410929C0410929D0410929E043E
:1008B00014BE84B7877F84BF88E10FB6F894809315
:1008C0006000109260000FBEE0E0F8E3099511E0CF
:1008D000A0E0B1E0E8E2FFE502C005900D92A63D80
:1008E000B107D9F714E0A6EDB1E001C01D92AB3914
:1008F000B107E1F70E9495280C94922F0C94000008
:10090000DB01E82FF0E0EE0FFF1FEA59FD4F949155
:100910009C933196E4911196EC9311978A3211F1E0
:1009200038F4803289F08432B9F0863199F507C005
:100930008B3321F18D3341F1843361F519C08091FE
:10094000050180FF27C024C08091050184FF22C0DB
:10095000E85F1196EC9308958091050183FF1AC01A
:10096000965F17C08091050183FF14C09C5F11C082
:100970008091050181FD0EC0985F0BC0809105013B
:1009800084FD08C09A5005C08091050182FD02C017
:1009900098509C930895E82FF0E0EE0FFF1FEA5265
:1009A000FE4F8491DB018C933196E4911196EC9388
:1009B0000895853020F08FEFDA018C9308956E3022
:1009C000D0F7BEE08B9FF0011124E60FF11DE05738
:1009D000FE4FE491DA01EC93089566E784E70E9404
:1009E000820F66E784E70C94950FCF93DF931F92F5
:1009F000CDB7DEB7AE014F5F5F4F0E94D904E981EA
:100A0000F0E0E85FFC4F10821092D8011092D901FB
:100A10001092DA011092DB010F90DF91CF910895CF
:100A20008091D70181110FC081E08093D7018DE0C3
:100A3000809391008FB7F89493E0909399009DE094
:100A4000909398008FBF0895E1E7F0E08081826085
:100A5000808308958093E10108958093E0010895D3
:100A60008091DC019091DD01A091DE01B091DF0168
:100A700080739927AA27BB2734E0B695A795979549
:100A800087953A95D1F782309105A105B10571F0AE
:100A900083309105A105B10569F040E00197A105FA
:100AA000B10511F060E008C06FEF02C04FEF60E0E9
:100AB00080E003C04FEF6FEF8FEF0C94B00E40E07B
:100AC00060E080E00C94B00E60910A0170910B011F
:100AD000809107010E948D0C962F672F482F892F38
:100AE0000C94B00E5F926F927F928F929F92AF9212
:100AF000BF92CF92DF92EF92FF920F931F93CF930B
:100B0000DF931F92CDB7DEB760910A0170910B01A0
:100B1000809107010E948D0CA62E972E882E609141
:100B20000D0170910E01809107010E948D0C762EAF
:100B3000672E582E40E2E42E41E0F42EB12CCC2456
:100B4000C394D12C00E010E0AE014F5F5F4F602FE7
:100B50008B2D0E94D90489818834C0F4F601002EBF
:100B600002C0EE0FFF1F0A94E2F7D7012D913C91CE
:100B7000E223F32390E0EF2B21F4282D492D6A2D59
:100B800003C0252D462D672D0E94780E0F5F1F4F45
:100B90000E301105C9F6B394B2E0EB0EF11C85E0FE
:100BA000B812D0CF0F90DF91CF911F910F91FF908E
:100BB000EF90DF90CF90BF90AF909F908F907F90FD
:100BC0006F905F900895DF92EF92FF920F931F93C3
:100BD000CF93DF9300D0CDB7DEB780910D0190E0C9
:100BE00020910A01821B91098038910514F09A9591
:100BF00005C081382FEF92070CF4939597FD03966B
:100C00009595879595958795D82E20910E0130E082
:100C100080910B01281B310937FF02C02D5F3F4F28
:100C20003595279535952795E22EF090070100E040
:100C300010E0BE016F5F7F4F802F0E9480049A8179
:100C400092959F7060910A019D9D600D1124709195
:100C50000B019E9D700D11248F2D0E948D0C472F2E
:100C6000282FC8010E94780E0F5F1F4F083411050E
:100C700001F70F900F90DF91CF911F910F91FF908F
:100C8000EF90DF9008958F929F92BF92CF92DF9264
:100C9000EF92FF920F931F93CF93DF931F92CDB7E5
:100CA000DEB7D82EF0900A0120910D0130E02F1907
:100CB000310937FF02C02D5F3F4F35952795359598
:100CC0002795C22EE0900B0120910E0130E02E19E5
:100CD000310937FF02C02D5F3F4FA9015595479558
:100CE00055954795B42E0E94D92E68E470E00E9475
:100CF000712E8C01812C912C1127D11003C08016EC
:100D00009106C9F40E94D92E83706F2D8C9D600DC1
:100D1000112469830E94D92E83707E2D8B9D700DC6
:100D200011246981809107010E948D0C472F282F83
:100D3000C4010E94780E8FEF881A980AE8E48E1694
:100D40009104D9F60F90DF91CF911F910F91FF90F1
:100D5000EF90DF90CF90BF909F908F900895DF929B
:100D6000EF92FF920F931F93CF93DF938091DC015B
:100D70009091DD01A091DE01B091DF0100900901A9
:100D800004C0880F991FAA1FBB1F0A94D2F7D82E40
:100D900008E013E0C0E0D0E0AFE3EA2EF12CF80168
:100DA00021918F01F4E02F9F90011124CA32D105C7
:100DB00051F0C334D10539F08091050183FF09C09A
:100DC000C434D10531F420912C0384E0289F900194
:100DD00011242034310520F4B701621B730B02C0CB
:100DE00060E070E06D0D7FEF809107010E948D0C37
:100DF000472F282FCE010E94780E2196C834D105A6
:100E000071F6DF91CF911F910F91FF90EF90DF90DE
:100E100008958F929F92AF92BF92CF92DF92EF92FE
:100E2000FF920F931F93CF93DF9300D0CDB7DEB720
:100E30008091DC019091DD01A091DE01B091DF0194
:100E40000090090104C0880F991FAA1FBB1F0A94B4
:100E5000D2F7882E90900701B8E0CB2EB3E0DB2EBE
:100E600000E010E08FE3A82EB12CF60121916F0174
:100E7000F4E02F9F900111240A32110551F0033440
:100E8000110539F08091050183FF09C00434110573
:100E900031F420912C0384E0289F90011124203408
:100EA000310520F47501E21AF30A02C0E12CF12C9D
:100EB000BE016F5F7F4F802F0E9480046981680DA3
:100EC0006E0D7FEF892D0E948D0C472F282FC801B2
:100ED0000E94780E0F5F1F4F0834110531F60F90F6
:100EE0000F90DF91CF911F910F91FF90EF90DF90C6
:100EF000CF90BF90AF909F908F9008958F929F92C8
:100F0000AF92BF92CF92DF92EF92FF920F931F9317
:100F1000CF93DF9300D0CDB7DEB78091DC01909105
:100F2000DD01A091DE01B091DF010090090104C054
:100F3000880F991FAA1FBB1F0A94D2F7882E909082
:100F4000070198E0C92E93E0D92E00E010E02FE3CE
:100F5000A22EB12CF60121916F01F4E02F9F900198
:100F600011240A32110551F00334110539F0809132
:100F7000050183FF09C00434110531F420912C03CD
:100F800084E0289F900111242034310520F475015C
:100F9000E21AF30A02C0E12CF12CBE016F5F7F4F11
:100FA000802F0E9480046A81680D6E0D7FEF892D6D
:100FB0000E948D0C472F282FC8010E94780E0F5FCA
:100FC0001F4F0834110531F60F900F90DF91CF912C
:100FD0001F910F91FF90EF90DF90CF90BF90AF9057
:100FE0009F908F900895CF92DF92FF920F931F935F
:100FF000CF93DF931F92CDB7DEB7F82E0E94D92E84
:1010000068E470E00E94712E8C01C12CD12C112754
:10101000F11003C0C016D10681F40E94D92E898335
:101020000E94D92E6981782F809107010E948D0C32
:10103000472F282FC6010E94780E8FEFC81AD80AB2
:10104000E8E4CE16D10421F70F90DF91CF911F91E4
:101050000F91FF90DF90CF900895EF92FF920F9342
:101060001F93CF93DF9300D0CDB7DEB78091DC0123
:101070009091DD01A091DE01B091DF0100900901A6
:1010800004C0880F991FAA1FBB1F0A94D2F7E82E2D
:10109000F090070100E010E0BE016F5F7F4F802FEE
:1010A0000E94CB0469816E0D7A818F2D0E948D0C78
:1010B000472F282FC8010E94780E0F5F1F4F08345A
:1010C000110551F70F900F90DF91CF911F910F9164
:1010D000FF90EF900895EF92FF920F931F93CF939D
:1010E000DF9300D0CDB7DEB78091DC019091DD01B8
:1010F000A091DE01B091DF010090090104C0880FCA
:10110000991FAA1FBB1F0A94D2F7E82EF09007017F
:1011100000E010E0BE016F5F7F4F802F0E94CB0484
:1011200069816E0D67FD60956695669580910A01EF
:10113000680F7A81769571588F2D0E948D0C472FFC
:10114000282FC8010E94780E0F5F1F4F0834110529
:1011500009F70F900F90DF91CF911F910F91FF90A2
:10116000EF9008950F931F93CF93DF93082F862F4F
:10117000BA010E948D0CEB01182F0E3F49F4482F45
:101180006D2F8C2FDF91CF911F910F910C94B00E8A
:10119000282F4D2F802F90E00E94780E0432E9F422
:1011A000212F4D2F6C2F8AE290E00E94780E212F84
:1011B0004D2F6C2F83E490E00E94780E8091050102
:1011C00083FF0BC0212F4D2F6C2F84E490E0DF9123
:1011D000CF911F910F910C94780EDF91CF911F91B9
:1011E0000F910895809113018F3F61F09091E0017C
:1011F00091FF08C0409110015091110160911201BE
:101200000E94B20880917D0283FF0BC080911F0174
:101210008F3F11F140911C0150911D0160911E0101
:1012200019C082FF0BC080911B018F3FA9F0409134
:1012300018015091190160911A010CC081FF0CC076
:10124000809117018F3F41F0409114015091150199
:10125000609116010C94B2080895FC01862F642F4A
:10126000853010F080830895AF010C94D90445E2D5
:1012700050E063E270E085E091E00C94E92E45E2F5
:1012800050E063E270E085E091E00C94072FE0E22B
:10129000F1E0DC012D913D91CD0121933193B1E03D
:1012A000EA32FB07B1F70C943F09CF93DF937894B0
:1012B0000E94BF0F84E70E94280E86E70E94280E36
:1012C000C0E0D0E0C731D10529F48091050180FD4F
:1012D00021C037C0C333D10529F48091050181FDB8
:1012E00019C02FC0CE33D10529F48091050182FDAC
:1012F0001CC027C0C334D10529F48091050183FDAA
:1013000020C013C0C533D10529F48091050186FDA5
:1013100018C00BC0C734D10529F48091050186FDA2
:1013200010C00BC0C831D10561F0CE0149970297BA
:1013300040F0CE018197029720F061E0C332D105E1
:1013400009F460E06170262F462F8C2F0E94CA0E90
:101350002196C834D10509F0B5CF66E784E70E942D
:10136000950FE8E0F3E08FEF819393E0E035F90724
:10137000D9F7DF91CF9108951F93CF93DF93EC01BD
:10138000988180910501192F18271F7590FB80F90E
:101390008093050198819695917090FB81F98093D7
:1013A0000501988192FB992790F990FB82F980932F
:1013B0000501988193FB992790F990FB83F980931D
:1013C000050198819295917090FB84F980930501B5
:1013D000988196FB992790F990FB86F980930501F7
:1013E000988195FB992790F990FB85F980930501E9
:1013F0008981809306018A81809307018B81809384
:1014000008018C81809309018D819E81AF81809339
:101410000A0190930B01A0930C0188859985AA85F8
:1014200080930D0190930E01A0930F018B859C85F5
:10143000AD858093100190931101A09312014F8507
:101440006E8583E191E00E942D09288939894A89B6
:101450002093140130931501409316014C896B8938
:1014600087E191E00E942D092D893E894F892093C3
:1014700018013093190140931A01498D688D8BE151
:1014800091E00E942D092A8D3B8D4C8D20931C01EB
:1014900030931D0140931E014E8D6D8D8FE191E0C3
:1014A0000E942D09112329F0DF91CF911F910C94F7
:1014B0005509DF91CF911F9108958091080190E027
:1014C00001968C30910514F08BE090E08093080138
:1014D0000C943F098091080190E0019797FF02C0AA
:1014E00080E090E08C30910514F08BE090E08093E8
:1014F00008010C943F098091090190E00196843025
:10150000910514F083E090E0809309010C943F0969
:101510008091090190E0019797FF02C080E090E080
:101520008430910514F083E090E0809309010C94DD
:101530003F098091070190E008968F3F910519F0CF
:1015400014F08FEF90E0809307010C943F09809195
:10155000070190E0089797FF02C080E090E08F3F7E
:10156000910519F014F08FEF90E0809307010C942F
:101570003F0980910A0190E008968F3F910519F08C
:1015800014F08FEF90E080930A010C943F09809152
:101590000A0190E0089797FF02C080E090E08F3F3B
:1015A000910519F014F08FEF90E080930A010C94EC
:1015B0003F0980910B0190E008968F3F910519F04B
:1015C00014F08FEF90E080930B010C943F09809111
:1015D0000B0190E0089797FF02C080E090E08F3FFA
:1015E000910519F014F08FEF90E080930B010C94AB
:1015F0003F0980910D0190E008968F3F910519F009
:1016000014F08FEF90E080930D010C943F098091CE
:101610000D0190E0089797FF02C080E090E08F3FB7
:10162000910519F014F08FEF90E080930D010C9468
:101630003F0980910E0190E008968F3F910519F0C7
:1016400014F08FEF90E080930E010C943F0980918D
:101650000E0190E0089797FF02C080E090E08F3F76
:10166000910519F014F08FEF90E080930E010C9427
:101670003F090F931F93CF93DF93EB0123E0829FEA
:10168000C00111248C01085B1F4FC8010E94F92E74
:101690008883C80101960E94F92E8983C8010296A9
:1016A0000E94F92E8A83DF91CF911F910F910895A7
:1016B0000F931F93CF93DF9300D01F92CDB7DEB768
:1016C00000E010E0BE016F5F7F4F802F0E94390B5A
:1016D000809107018B8369817A818B810E948D0CB7
:1016E000472F282FC8010E94780E0F5F1F4F083424
:1016F000110541F70F900F900F90DF91CF911F913F
:101700000F9108951F920F920FB60F9211240F930D
:101710001F932F933F934F935F936F937F938F9379
:101720009F93AF93BF93EF93FF938091D601843142
:1017300020F48F5F8093D601A2C08091DC0190914C
:10174000DD01A091DE01B091DF010196A11DB11D67
:101750008093DC019093DD01A093DE01B093DF0163
:101760008091D8019091D901A091DA01B091DB016B
:101770008F3F2FEF9207A207B20759F00196A11DE4
:10178000B11D8093D8019093D901A093DA01B09351
:10179000DB01E8E0F3E080818F3F11F08F5F808311
:1017A000319683E0E035F807B1F7409108014F3FEB
:1017B00019F40E94300563C08091E101882321F073
:1017C0008091050185FD1EC050910601511102C096
:1017D00080E019C020EB34E0529FC001539F900D70
:1017E0001124AA2797FDA095BA2F0091D801109136
:1017F000D9012091DA013091DB0180179107A2070E
:10180000B30730F781E0182F117009F040E081E054
:1018100090910401491301C080E04093040150E01D
:101820004B30510530F5FA01EA5AFF4F0C94852EE2
:101830000E945F0520C00E9464051DC00E947205C1
:101840001AC00E94E30517C00E94430614C00E94FC
:10185000AF0611C00E9409070EC00E947E070BC090
:101860000E94F30708C00E942D0805C00E946B0863
:1018700002C00E94580B111102C00E94F208FF9191
:10188000EF91BF91AF919F918F917F916F915F91F8
:101890004F913F912F911F910F910F900FBE0F907D
:1018A0001F901895EF92FF920F931F93CF93DF93A2
:1018B00000D0CDB7DEB7E32EF42EAE014F5F5F4F01
:1018C0002A830E94D90409812A810834A0F483E084
:1018D000089F80011124085B1F4F622FC8010E94DE
:1018E000172F6E2DC80101960E94172F6F2DC8016A
:1018F00002960E94172F0F900F90DF91CF911F91AA
:101900000F91FF90EF9008956091DC017091DD01DF
:101910008091DE019091DF010895AF92BF92DF9236
:10192000EF92FF920F931F93CF93DF93D82EF82F50
:10193000711103C0682F782F7FC0E62EF12CC72FBE
:10194000D0E0082F10E0C7016BE270E00E945D2E2E
:1019500045ED46039001479F300D11242E0D3F1D8C
:1019600046E0429FC001439F900D11244FEF50E08D
:10197000DA01AC1BBD0BA09F9001A19F300DB09F61
:10198000300D1124F32E8C9FD0018D9FB00D9C9FA4
:10199000B00D1124AB2FBB275A01AA1ABB0AA09E77
:1019A000D001A19EB00DB09EB00D1124EB2F5A01B5
:1019B000A81AB90AAC9EC001AD9E900DBC9E900DB8
:1019C0001124892F9927481B590B409FE001419F03
:1019D000D00D509FD00D112462307105A9F03CF458
:1019E0006115710571F061307105C1F014C063308B
:1019F000710569F06430710571F4D32EFF2EED2F5F
:101A00000DC0ED2DDD2E0AC0E32FFD2E07C0E32F04
:101A1000FD2CDB2E03C0EF2FD32EFB2EF0E0EA507F
:101A2000FD4F6491ED2DF0E0EA50FD4F7491EF2DE4
:101A3000F0E0EA50FD4F8491DF91CF911F910F911B
:101A4000FF90EF90DF90BF90AF90089580E290E01C
:101A50000E94012F8F31954451F482E290E00E9460
:101A6000F92E91E0863009F090E0892F01C080E0E6
:101A700081700895CF93C82F882319F06FE175E422
:101A800002C06FEF7FEF80E290E00E94292FCC230D
:101A900011F066E001C06FEF82E290E0CF910C940C
:101AA000172F50E0440F551F9CE1699F400D511DB9
:101AB00011249CE8899F400D511D1124CA01805EAC
:101AC0009E4F08950F931F93CF93DF930E94510D64
:101AD000EC010E94F92E082F10E0102F0027CE01F4
:101AE00001960E94F92E9801282BC901DF91CF9110
:101AF0001F910F9108950F931F93CF93DF9300D001
:101B0000CDB7DEB72A8339830E94510D8C0139810C
:101B1000632F0E94172F2A81622FC80101960F9010
:101B20000F90DF91CF911F910F910C94172F1F935E
:101B3000CF93DF93D0E0C0E010E02FEF3FEF412FD5
:101B40006C2F8D2F0E947B0D1F5F1E30B1F7CF5F72
:101B5000C53091F7DF5FD43071F7DF91CF911F91DE
:101B600008951F93CF93DF93D82FC62F172F0E946E
:101B7000260D882379F0D43068F4153058F4CE302F
:101B800048F44C2F612F8D2F0E94620D8F3F2FEF55
:101B9000920789F48EE0189FF001112426E4D29F69
:101BA000E00DF11D1124EC0FF11DEE0FFF1FEE599A
:101BB000FB4F85919491DF91CF911F910895880FEC
:101BC00080937204609373044093740488EF80934D
:101BD000EC028091EC028F3F39F040E063E082E755
:101BE00094E00E94D60FF5CF0895FF920F931F93B4
:101BF000CF93DF938B01880F80937204C0E0D0E015
:101C000088EFF82E8C2F8C5D80937304E4E7F4E06A
:101C1000D801AC0FBD1F8D91819384E0E438F807A3
:101C2000D1F7F092EC028091EC028F3F39F040E066
:101C300062E182E794E00E94D60FF5CF6096C0394A
:101C4000D10501F7DF91CF911F910F91FF9008957A
:101C5000CF93DF93C82F4BE06DEF0E94DF0D40E084
:101C60006AE08C2F0E94DF0D8FE39CE90197F1F76A
:101C700000C0000040E060E08C2F0E94DF0D40E0DB
:101C800061E08C2F0E94DF0D40E066E08C2F0E9407
:101C9000DF0D40E06DEF8C2F0E94DF0DD0E040E0C3
:101CA0006D2F8C2F0E94DF0DDF5FD231C1F740E036
:101CB0006D2F8C2F0E94DF0DDF5FD432C1F740E023
:101CC0006D2F8C2F0E94DF0DDF5FD43BC1F74BE0FF
:101CD0006DEF8C2F0E94DF0D41E06AE08C2F0E9497
:101CE000DF0D40E06DEF8C2FDF91CF910C94DF0D75
:101CF000CF93DF938834910580F58432910524F0E9
:101D00008497C1E0D0E002C0C0E0D0E0FC01E25C1A
:101D1000FB4FE49130E93C9FD0013D9FB00D112471
:101D2000AE5ABC4FED01CE0FD11DFE01B4976083BA
:101D3000FC01E65EFB4FE491BD016E0F711DFB01DE
:101D4000B4974083FC01EA50FC4F8491A80FB11D69
:101D500094972C9381E080930702DF91CF910895AF
:101D6000FF920F931F93CF93DF93182F062FF42E1C
:101D7000C0E0D0E02F2D402F612FCE010E94780EC1
:101D80002196C834D105B1F7DF91CF911F910F9102
:101D9000FF900895FF920F931F93CF93DF938432A8
:101DA00018F0845291E001C090E0823118F0825125
:101DB00071E001C070E036E0839FF0011124E35C24
:101DC000FE4FA0815181F280C381D4813581892F5A
:101DD00090E0B0E0E72FF0E08D010E0F1F1F6623AB
:101DE00099F062E1689FD001699FB00D1124A00FA6
:101DF000B11FAD51BE4F61E070E001C0660F5A9552
:101E0000EAF75C91562B13C062E1689FD001699F8D
:101E1000B00D1124A00FB11FAD51BE4F61E070E0B5
:101E200001C0660F5A95EAF760955C9156235C9362
:101E30006F2D70E06E0F7F1F4423A1F042E1489F99
:101E4000D001499FB00D1124A60FB71FAD51BE4F51
:101E500041E050E00C2E01C0440F0A94EAF75C9177
:101E6000542B14C042E1489FD001499FB00D11246A
:101E7000A60FB71FAD51BE4F41E050E00C2E01C080
:101E8000440F0A94EAF740955C9154235C934D2FDC
:101E900050E02223B9F0E40FF51F22E1289FD00182
:101EA000299FB00D1124AE0FBF1FAD51BE4F81E071
:101EB00090E0032E01C0880F0A94EAF79C91982BBA
:101EC0009C9317C04E0F5F1F22E1289FF001299FAE
:101ED000F00D1124E40FF51FED51FE4F81E090E06D
:101EE000032E01C0880F0A94EAF780959081982309
:101EF000908381E08093E201DF91CF911F910F9158
:101F0000FF900895CF93C62F90910702992349F02F
:101F100062E573E00E94F50D62EE73E08C2F0E9483
:101F2000F50D10920702CF910895DF92EF92FF9284
:101F30000F931F93CF93DF93D82EE62E8091E2016B
:101F40008823A9F003EE11E0C5EFD1E0F12CF801F0
:101F500041918F016F2D8D2D0E94DF0D49916F2DC5
:101F60008E2D0E94DF0DF394F2E1FF12F0CFDF918E
:101F7000CF911F910F91FF90EF90DF9008951092F5
:101F8000EB028FEF8093EC021092ED021092B900F9
:101F90008CE08093B80085E08093BC000895909118
:101FA000EB029D7F81E009F080E008951F93CF93BD
:101FB000DF9300D01F92CDB7DEB7182F653108F040
:101FC00049C04A8369839B830E94CF0F4A816981FC
:101FD0009B81811105C085E08A95F1F70000F1CF62
:101FE0004093ED02E12FF92FA0EFB2E070E0CD01B8
:101FF000805F9240861797071CF481918D93F7CFED
:1020000070935103609350031092EF021092EE020E
:102010008091EB028230B1F481E08093EB028091F9
:10202000EE029091EF029C012F5F3F4F3093EF0241
:102030002093EE02FC01E051FD4F80818093BB00B4
:1020400085E804C081E08093EB0285EA8093BC00C0
:1020500080E001C081E00F900F900F90DF91CF9151
:102060001F9108951F920F920FB60F9211242F9374
:102070003F934F938F939F93EF93FF938091B9007A
:10208000887F883239F180F4803109F49FC030F4C0
:10209000882309F49FC08830E9F0A3C08831B9F0E3
:1020A000803209F480C09DC0803491F138F48033CF
:1020B00009F479C0883309F476C093C08035A9F15A
:1020C000883509F455C0883409F08BC06CC083E0B2
:1020D0008093EB022091EE023091EF028091500349
:1020E00090915103281739070CF053C08091EE02EC
:1020F0009091EF029C012F5F3F4F3093EF022093AE
:10210000EE02FC01E051FD4F80818093BB002BC0AB
:1021100084E08093EB028091040390910503019782
:10212000209106033091070316C080910603909119
:1021300007039C012F5F3F4F309307032093060353
:102140004091BB00FC01E952FD4F408380910403A4
:10215000909105030197281739072CF488EF809395
:10216000EC0285EC3CC088EF8093EC0285E837C038
:1021700080910603909107039C012F5F3F4F30939E
:102180000703209306032091BB00FC01E952FD4F99
:1021900020838091ED02882311F08FEF0BC0109205
:1021A000EB028FEF10C08091ED02882339F080910F
:1021B000B900887F8093EC0285EA11C01092EB028F
:1021C0008091B900887F8093EC0208C082E0809300
:1021D000EB0207C01092EC021092EB0285E98093AB
:1021E000BC00FF91EF919F918F914F913F912F9163
:1021F0000F900FBE0F901F9018951F93CF93DF93F2
:10220000EC01162F488150E0FA013197E830F105D2
:10221000A8F5EF59FF4F0C94852E86E090E09A8345
:1022200089832EC04B816A8189810E94620D9D83C2
:102230008C8326C02C813D814B816A8189810E94DB
:102240007B0D1EC00E94970D1BC001960E94BC0909
:1022500003C001960E9447090E943F0911C02B81CB
:102260003C814D816A8189810E94520C09C00E9483
:10227000840C6A837B838C839D8302C08FEF888369
:10228000612FCE01DF91CF911F910C9486270E9480
:1022900015178FE19EE40197F1F700C000000E943E
:1022A000151780E00E94C11780FF0CC084E00E94D7
:1022B000C11787FF07C080E00E943A0D0E941A23D1
:1022C0000C944A2408950F931F93CF93DF931F928A
:1022D000CDB7DEB70E9447110E94260D882319F062
:1022E0000E9437091CC00E943F0900E010E00E94D4
:1022F000D92E89830E94D92E382F3F7729814FEF1D
:10230000612F802F0E94520C1F5F1E3081F70F5FDC
:10231000053061F70E94970D81E00E943A0D0E94FE
:1023200055090E9410050E9424050F90DF91CF915E
:102330001F910F910C94C5160E94ED040C94C616C3
:102340000F931F93CF93DF938C01EB018A81882336
:1023500021F0688189810E94F504F801FF55E03180
:10236000F10508F067C0E759FF4F8A810C94852E6C
:10237000882309F467C00E94990A64C0882309F47D
:1023800061C00E94A70A5EC0882309F45BC00E9456
:102390005D0A58C0882309F455C00E946A0A52C0D9
:1023A000882309F44FC00E947B0A4CC0882309F49B
:1023B00049C00E94880A46C0882309F443C00E948D
:1023C000B90A40C08823F1F10E94C70A3BC08823A4
:1023D000C9F10E94D90A36C08823A1F10E94E70AF8
:1023E00029C0882379F10E94F90A2CC0882351F171
:1023F0000E94070B27C0882329F10E94190B22C0D5
:10240000882301F10E94270B15C0882311F081E079
:1024100005C081E00CC0882349F082E00E94882139
:1024200043E062E081E00E94E8130CC082E00E9479
:10243000A321F6CFBE01C801DF91CF911F910F916B
:102440000C947C1280E0DF91CF911F910F91089541
:102450009C013F502F3F310509F058F49C01332770
:10246000A901415351094230510518F4C901986F2F
:102470000895FC01EE0FFF1FEE56F94F85919491E0
:102480000895CF93DF93EC018FEC860F823038F5FF
:102490008A818823D9F0613311F481E001C082E0A0
:1024A0000E9488218D81982F907F61F080FD0AC065
:1024B00082958F7090E0039794F083E0DF91CF9145
:1024C0000C94C2218D818F708D8309C0613311F40A
:1024D00081E001C082E0DF91CF910C94A321DF91D4
:1024E000CF9108950C942D0581E00C942A0580E08D
:1024F0000C942A0581E0089581E008950E94281D2A
:102500002FEF84E39CE0215080409040E1F700C031
:1025100000000C944A240F931F93CF93DF938C01F8
:10252000FC01C081D181CE010E941422BE010E9413
:10253000B10DEC01B8010E94A011882309F442C139
:10254000B801CE010E947916882309F43BC1C53138
:10255000FCE5DF0781F50E94C722382FF8012281B0
:1025600080912A0190912B01222371F03A7A21E087
:1025700009F420E020930802222311F065E301C052
:1025800069E20E94A32309C020910802222311F0CE
:1025900065E301C069E20E94AE230E94942281E0BB
:1025A00080930D0280930E02C801DF91CF911F919D
:1025B0000F910C947A12C6318CE5D80708F097C0B9
:1025C000C130ECE5DE0759F4F8018281882309F473
:1025D000F9C08091AA0281608093AA02F3C0C23040
:1025E000FCE5DF0708F477C0F80182818823E1F277
:1025F0000E942023811102C00E9400230E943323E5
:1026000090E090938D0480938C04FE01E350FC4590
:10261000E231F10520F4E758FF4F0C94852E8091AC
:102620008C04816003C080918C04826080938C0450
:102630004BC080918C048460F9CF80918C0413C0CE
:1026400080918C048061F2CF80918C048062EECF07
:1026500080918C048064EACF80918C048068E6CFFE
:1026600080918C0484608860E1CF80918C048E7F9F
:10267000DDCF80918C048D7FD9CF80918C048B7FAE
:10268000D5CF80918C0413C080918C048F7ECECFE7
:1026900080918C048F7DCACF80918C048F7BC6CFB4
:1026A00080918C048F77C2CF80918C048B7F877F41
:1026B000BDCF90918C0497FB882780F921E0822779
:1026C00080FB97F990938C0480918C040E943723AF
:1026D0000E94281D77C0C115DC4509F060CFF801C4
:1026E0008281882309F46EC00E947E126BC0C13DB6
:1026F000ECE5DE0739F5F8018281882361F010925C
:102700000E020E94EF2390930C0280930B0280E252
:102710000E944C1A57C080910E0281110FC0809107
:102720000B0290910C020E94FB23883C910530F42F
:1027300087E20E940E1987E20E94EB1980E20E9454
:10274000531A40C0C23DFCE5DF0738F5C03DDC450B
:1027500009F025CFF8018281882351F010920D02F3
:102760000E94EF2390930A028093090282E0D0CF67
:1027700080910D0281110FC08091090290910A028F
:102780000E94FB23883C910530F486E20E940E19DA
:1027900086E20E94EB1982E0D2CFC43DECE5DE0771
:1027A00031F4F8018281882369F080E009C0C53DD9
:1027B000DC4509F0F4CEF8018281882319F082E02B
:1027C0000E94582980E0DF91CF911F910F910895C9
:1027D000CF92DF92EF92FF920F931F9301E010E0F0
:1027E00020E030E06801790104C0CC0CDD1CEE1C57
:1027F000FF1C8A95D2F7D701C60104C0000F111F34
:10280000221F331F6A95D2F7802B912BA22BB32B5B
:1028100000917D0210917E0220917F023091800212
:10282000082319232A233B23081719072A073B07E4
:1028300049F4842F1F910F91FF90EF90DF90CF907C
:102840000C948821842F1F910F91FF90EF90DF90BF
:10285000CF900C94A3210C9463110C949C110C94B4
:10286000721280E090E00895CF93DF930E94B10D43
:102870000E94CF15EC01811520E49207C0F5C11527
:1028800080E3D80708F0E5C0C03ED105D8F4C03CCD
:10289000D10508F072C0C83AD10578F4C53AD1051F
:1028A00008F06FC0C130D10509F475C108F42CC11E
:1028B000C430D10508F06FC127C1CD3BD10508F464
:1028C0006BC022C1CF3FD10509F048F4C03FD1050C
:1028D00008F0B9C0C83ED10508F45DC115C1C115E5
:1028E00020E2D20708F457C1CE019F70AEC0C115D7
:1028F00084E5D807D8F4C11523E5D20708F0E4C071
:10290000C11581E5D80740F4C11520E5D20708F0CC
:10291000AAC0DF70D06A3FC1C11582E5D80708F0B0
:10292000BEC0DC2FCC27C16FD06A35C1C11526E5EA
:10293000D20750F4C11585E5D80708F0DAC0DC2FBE
:10294000CC27C46FD06A27C1C11528E5D20708F487
:10295000DBC0C11589E5D80708F4D1C0CE01905677
:102960008115904208F0D0C08D2F8F710E944B16B8
:10297000DD27D0628F71D82B0EC1CE01805C91090A
:1029800064C0C53AD10509F4C2C0C63AD10509F4FC
:10299000C1C0C3E8D0E4FFC0C83AD10509F4BDC046
:1029A000C93AD10509F4BCC0CA3AD10509F4BBC083
:1029B000CB3AD10509F4BAC0CC3AD10509F4B9C073
:1029C000CB3BD10509F4B8C0CC3BD10509F4B7C065
:1029D000CD3AD10509F4B6C0C03BD10509F4B5C064
:1029E000CE3AD10509F4B4C0CF3AD10509F4B3C049
:1029F000C13BD10509F4B2C0C23BD10509F4B1C055
:102A0000C33BD10509F4B0C0C43BD10509F4AFC044
:102A1000C53BD10509F4AEC0C63BD10509F4ADC034
:102A2000C73BD10509F4ACC0C83BD10509F4ABC024
:102A3000C93BD10509F4AAC0CA3BD10509F0A9C018
:102A4000CAE2D6E4A8C0D065A6C00E942812EC0154
:102A5000A2C0CE019927D3FF03C0EC01D86C9BC064
:102A6000EC01D06C98C02C2F237081E090E002C064
:102A7000880F991F2A95E2F79C689E0174E03695AD
:102A800027957A95E1F72370922BCF70C695C6955E
:102A900020E2C29FE0011124C82BD92B7CC08C2FCF
:102AA0008695869520E2829FC00111249E012370A5
:102AB0003327C1E0D0E002C0CC0FDD1F2A95E2F73A
:102AC000C82BD92BDC6867C08C2F8695869520E2B1
:102AD000829FC00111249E0123703327C1E0D0E002
:102AE00002C0CC0FDD1F2A95E2F7C82BD92BDA687C
:102AF00052C0CF71DD27DC2FCC27D0624CC0DC2F39
:102B0000CC27C06FD06A47C0C0E0D0E044C0C1E865
:102B1000D0E441C0C2E8D0E43EC0C2EED4E43BC041
:102B2000C9EED4E438C0CAEED4E435C0C5EBD4E471
:102B300032C0C6EBD4E42FC0C3EBD4E42CC0C4EB4A
:102B4000D4E429C0C7EBD4E426C0CCECD4E423C041
:102B5000CDECD4E420C0C3E8D5E41DC0CAE8D5E478
:102B60001AC0C2E9D5E417C0C4E9D5E414C0C1E273
:102B7000D6E411C0C3E2D6E40EC0C4E2D6E40BC072
:102B8000C5E2D6E408C0C6E2D6E405C0C7E2D6E492
:102B900002C0C0E0D4E4CE01DF91CF910895823825
:102BA000910549F1B0F48133910509F459C048F415
:102BB0008932910509F44FC08A32910509F455C054
:102BC00008958533910509F441C08933910599F041
:102BD0000895833E910531F138F4803E910591F0DE
:102BE000823E9105A9F00895863E910501F1873E48
:102BF000910539F1089520918C0420FD3BC021FD01
:102C000039C0089580918C0480FF34C089E341C0AD
:102C100080918C0482FF32C080918C0484FF2CC090
:102C200080E037C080918C0482FD28C0F5CF809170
:102C30008C0483FF25C080918C0484FDF1CF87EE46
:102C400028C080918C0483FD1BC0F5CF80918C043B
:102C500085FF18C019C080918C0485FF15C012C073
:102C600080918C0486FF12C013C080918C0486FF73
:102C70000FC00CC080EE0DC083EE0BC082EE09C009
:102C800086EE07C085E305C089E203C081E301C089
:102C90008AE290E00895CF93C82F0E943323282F13
:102CA00030E030938D0420938C0482FF0DC08C2F74
:102CB0008871883019F4C77FC46006C08C2F847176
:102CC000843011F4CB7FC86023FF0DC08C2F887136
:102CD000883119F4C77EC46106C08C2F8471843199
:102CE00011F4CB7EC86124FDC77E8C2FCF9108954F
:102CF0000895CF93DF93EC01FB018281811102C023
:102D000081E040C080911C02811125C0C631DC45A4
:102D1000B9F70E94781681E080931C020E94EF238D
:102D200090931B0280931A0210920F0210921102CC
:102D300010921002109213021092120210921502B9
:102D40001092140210921702109216021092190299
:102D50001092180216C080911A0290911B020E94D4
:102D6000FB23883C910560F680910F02E82FF0E08C
:102D7000EE0FFF1FE05FFD4FD183C0838F5F809315
:102D80000F0280E0DF91CF9108950895089585B7EF
:102D9000806885BF85B7806885BFA7EBB1E021E07B
:102DA00030E08D91E82FE295EF70F0E041A18F7057
:102DB000B90102C0660F771F8A95E2F7CB01962F03
:102DC0009095492341A392A1982B92A371E0AC3B2B
:102DD000B70739F7A9EAB1E021E030E08D91E82F9B
:102DE000E295EF70F0E041A18F70B90102C0660F6B
:102DF000771F8A95E2F7CB01962F9095492341A33F
:102E000092A1982B92A371E0A73BB70739F7E7E2AD
:102E1000F2E0ADE1B2E0119211921D921D9282E0BA
:102E2000E133F807C1F70C942B144F925F927F9215
:102E30008F929F92AF92BF92CF92DF92EF92FF92CA
:102E40000F931F93CF93DF9307EB11E0CDE1D2E017
:102E5000EE24E394F12C99249394BE01A880B980C8
:102E600019821882D8012D918D01E22FE295EF7021
:102E7000F0E081A12F70A70102C0440F551F2A95D1
:102E8000E2F79A01842B81A382A1842E8094882169
:102E900082A350EA5A95F1F749EA442E41E0542EB4
:102EA00080E090E0D2014D912D01C42EC2943FE00C
:102EB000C322D12CD60190967C90C880D9804F70C7
:102EC000D70102C0AA0FBB1F4A95E2F77A2241F44C
:102ED000A701082E02C0440F551F0A94E2F702C052
:102EE00040E050E04C295D295983488301968E309B
:102EF0009105C1F681A1882181A382A1822B82A3A1
:102F00002296FB0180819181A816B90641F090922A
:102F100031020E94EF239093330280933202F1E05A
:102F20000C3B1F0709F099CF809131028823B1F043
:102F300080913202909133020E94FB23069770F039
:102F4000EDE1F2E0A7E2B2E0819191918D939D9342
:102F500042E0E732F407C1F7109231020E942D14CB
:102F600081E0DF91CF911F910F91FF90EF90DF9063
:102F7000CF90BF90AF909F908F907F905F904F9039
:102F80000895E82FF0E0EE0FFF1FE95DFD4F80810F
:102F9000918108950895909339028093380208959D
:102FA000E0913802F0913902309721F00190F081E0
:102FB000E02D099480E00895E0913802F091390203
:102FC000309721F00280F381E02D09940895E0917B
:102FD0003802F0913902309721F00480F581E02D1C
:102FE0000994089520913602309137028217930791
:102FF00071F09093370280933602E0913802F0919D
:103000003902309721F00680F781E02D0994089568
:1030100020913402309135028217930771F090931A
:10302000350280933402E0913802F09139023097F2
:1030300021F00084F185E02D0994089508950C9401
:103040001E180E94E6230E94C7160C946D245F92FE
:103050006F927F928F929F92AF92BF92CF92DF92A8
:10306000EF92FF920F931F93CF93DF93CDB7DEB70D
:103070002A970FB6F894DEBF0FBECDBF0E9415177A
:103080009BE3C92E92E0D92E00E010E0AA24A3947D
:10309000B12C502E802F0E94C1173C01F601E19007
:1030A000F1906F01E826F926E114F104B1F40F5F05
:1030B0001F4F0530110569F78FEF89838A831B82C3
:1030C0000E94EF238160782F9D838C8349815A81F0
:1030D0006B818D810E94E0183AC08091AA0281FD27
:1030E0000E94CA1720E030E04501022E02C0880C81
:1030F000991C0A94E2F7C4018E219F21892B09F1C2
:103100002E835F826820792081E0672809F480E0BF
:1031100088870E94EF238160782F9A8789874E8164
:103120005F8168858A850E94E018F801EE0FFF1F15
:10313000E55CFD4F8081918188259925918380836D
:1031400006C02F5F3F4F2E30310571F6B0CF0E9481
:10315000FF2510913A020E94D0171817D9F00E944B
:10316000D01780933A022A960FB6F894DEBF0FBEAE
:10317000CDBFDF91CF911F910F91FF90EF90DF9026
:10318000CF90BF90AF909F908F907F906F905F9007
:103190000C942F142A960FB6F894DEBF0FBECDBF45
:1031A000DF91CF911F910F91FF90EF90DF90CF9023
:1031B000BF90AF909F908F907F906F905F90089599
:1031C000CF93DF93CDB7DEB72B970FB6F894DEBF62
:1031D0000FBECDBF4F83588769877A878B87DE0103
:1031E000119686E0FD0111928A95E9F785E0FE01CE
:1031F000379601900D928A95E1F749815A816B814A
:103200007C818D819E810E94F21F2B960FB6F894CF
:10321000DEBF0FBECDBFDF91CF910895882309F4A3
:10322000D9C0823879F40E94D01781FDD3C069E3F8
:1032300080912A0190912B010E94A3230E94942245
:1032400069E310C08338B1F40E94D01780FDC2C07A
:1032500063E580912A0190912B010E94A3230E9493
:10326000942263E580912A0190912B010E94AE2364
:103270000C949422843879F40E94D01782FDAAC05D
:1032800067E480912A0190912B010E94A3230E9460
:10329000942267E4E7CF9CEF980F913A40F4682FAF
:1032A00080912A0190912B010E94A323E1CF90E20B
:1032B000980F983050F4877091E001C0990F8A956B
:1032C000EAF7892F0E94CA22D3CF9BE5980F93304B
:1032D00070F4853A29F0863A31F482E890E005C02E
:1032E00081E890E002C083E890E00C94F21798E542
:1032F000980F953108F06EC0883A61F1893A69F10A
:103300008A3A71F18B3A79F18C3A81F18B3B89F1F0
:103310008C3B91F18D3A99F1803BA1F18E3AA9F164
:103320008F3AB1F1813BB9F1823BC1F1833BC9F1E5
:10333000843BD1F1853BD9F1863BE1F1873BE9F153
:10334000883BF1F1893BF9F18A3B09F03FC08AE201
:1033500092E03EC082EE90E03BC089EE90E038C043
:103360008AEE90E035C085EB90E032C086EB90E0CD
:103370002FC083EB90E02CC084EB90E029C087EB5A
:1033800090E026C08CEC90E023C08DEC90E020C053
:1033900083E891E01DC08AE891E01AC082E991E0DB
:1033A00017C084E991E014C081E292E011C083E289
:1033B00092E00EC084E292E00BC085E292E008C089
:1033C00086E292E005C087E292E002C080E090E0F1
:1033D0000C9408180895882309F45DC0823879F4A4
:1033E0000E94D01781FF57C069E380912A01909114
:1033F0002B010E94A3230E94942269E310C083380A
:10340000B1F40E94D01780FF46C063E580912A0185
:1034100090912B010E94A3230E94942263E5809146
:103420002A0190912B010E94AE230C94942284389F
:1034300079F40E94D01782FF2EC067E480912A01A0
:1034400090912B010E94A3230E94942267E4E7CF6E
:103450009CEF980F913A10F4682FE1CF90E2980F0B
:10346000983050F4877091E001C0990F8A95EAF77F
:10347000892F0E94D022D9CF9BE5980F933020F45A
:1034800080E090E00C94F217885A853120F480E0B7
:1034900090E00C9408180895882321F00E94CA2215
:1034A0000C9494220895882321F00E94D0220C9439
:1034B000942208958F929F92BF92CF92DF92EF92C3
:1034C000FF920F931F93CF93DF9300D0CDB7DEB75A
:1034D0004C01472FFC01C580C2949FE0C922D280D5
:1034E000DD2031F079836A830E94E7226A81498175
:1034F00049836A830E948D2249816A81882389F0E9
:10350000DD2079F080E2860F883058F082E00E945A
:1035100076220E948D22BB24B394B82649816A8109
:1035200001C0B12CE42EE2948FE0E822F12CF701E7
:10353000E557FF4F0C94852E842F807F142F1F702A
:10354000882311F01295107FDD20C1F0112309F4BA
:10355000DCC180E2860F883010F0611105C0812F38
:103560006A830E94CA2204C0812F6A830E94DA22E1
:103570006A816A830E9494226A81C7C1862F6A8306
:103580000E94EB196A81112309F4E0C180E2860FE1
:10359000883010F0611104C0812F0E94D02203C036
:1035A000812F0E94E0220E949422D0C1242F207FEC
:1035B000842F8F70203211F08295807F662319F05E
:1035C0006130B9F022C0DD2049F0CC2009F452C1AD
:1035D000F1E0CF124FC10E94FA22B8C1CC2021F0F5
:1035E00021E0C21609F4B2C189830E94FD228981BB
:1035F00047C1DD2029F095E09C1508F4A7C13AC128
:10360000E4E0EC1508F4A2C13BC1DD2051F0CC2070
:1036100009F430C1F401958190FF77C19F709583C3
:1036200029C1CC2009F42CC181C1242F26952695CF
:10363000237030E02115310521F02130310561F092
:1036400085C1DD2021F0862F942F937002C080E089
:1036500090E00E94F2178AC1DD2021F0862F942F7E
:10366000937002C080E090E00E9408187FC1DD20C6
:10367000F9F0653F51F0663F71F0643FA9F4809125
:1036800086049091870481600BC08091860490919C
:103690008704826005C080918604909187048460CD
:1036A0009093870480938604862F0E94072522C06A
:1036B000653F51F0663F91F0643FC9F48091860404
:1036C000909187048E7F05C0809186049091870435
:1036D0008D7F909387048093860409C0209186048F
:1036E000309187042B7F3093870420938604862FA4
:1036F0000E946F250E94F42539C1842F837009F040
:103700004EC0D1102FC1262F229526952770220F4B
:10371000220F862F8F70C82ED12CE12CF12C022E77
:1037200004C0CC0CDD1CEE1CFF1C0A94D2F764FF15
:1037300010C06FE070E080E090E004C0660F771F7B
:10374000881F991F2A95D2F760957095809590955E
:1037500003C060E070E0CB01242F269526952370EE
:1037600030E02230310569F02330310589F06C29D1
:103770007D298E299F292130310571F00E94432136
:10378000F1C06C297D298E299F290E945521EAC00C
:103790000E944321C701B6010E943121E3C0DD2010
:1037A00019F0842F817001C08695882309F4DAC04E
:1037B000262F229526952770220F220F862F8F7095
:1037C000C82ED12CE12CF12C022E04C0CC0CDD1C17
:1037D000EE1CFF1C0A94D2F764FF10C06FE070E08B
:1037E00080E090E004C0660F771F881F991F2A951C
:1037F000D2F7609570958095909503C060E070E079
:10380000CB01242F26952695237030E022303105F8
:1038100069F02330310589F06C297D298E299F2993
:103820002130310571F00E94EF219CC06C297D2967
:103830008E299F290E94012295C00E94EF21C70175
:10384000B6010E94DD218EC0062F10E0F801E05E77
:10385000F109E531F10508F054C0E556FF4F0C942D
:10386000852E162F1F70842F8F71DD2031F00E945E
:103870008821812F0E944C1A69C00E94A321812FA8
:103880000E94531A63C0DD2049F0F4E0FC1508F4EF
:103890005DC0842F8F710E94C22158C025E02C1575
:1038A00008F454C0F6CFDD2039F0842F8F710E94C8
:1038B00088214CC0DD20C9F3842F8F710E94A32181
:1038C00045C0DD2029F0842F8F710E9479213EC0F0
:1038D0000E9474213BC0DD2051F0142F1F71812FF5
:1038E0000E94882163E0812F0E946D222FC081E019
:1038F0000E94762281E08C1548F582E00E947622B3
:1039000025C0DD2031F0CC2081F2862F0E940E19D7
:103910001DC0CC2089F2693349F49FEFE7EEF3E054
:103920009150E040F040E1F700C00000862F0E9477
:10393000EB190CC04F70C4010E9431140E949F20EB
:1039400015C04F70C4010E94411210C028E0E21659
:10395000F10441F05CF09AE0E91AF108E2E0EE16B9
:10396000F10420F40E94D0170E942F14BB20F1F024
:103970000E94692280FD1AC0F40112820E94632213
:103980000E948821C4010E94E41C0E9463220F90BF
:103990000F90DF91CF911F910F91FF90EF90DF90EB
:1039A000CF90BF909F908F900C94A3210F900F9079
:1039B000DF91CF911F910F91FF90EF90DF90CF900B
:1039C000BF909F908F9008950F931F93CF93DF9395
:1039D000EC01288139818B819C81892B31F03F3F1B
:1039E00011F080E003C02F3FE1F781E0811113C0A7
:1039F000CE010E948B12882371F0688179818A81BF
:103A00000E945F228C010E9413220E942E21B80185
:103A1000CE010E945A1ADF91CF911F910F91089504
:103A20000E94E7220E94F72280912A0190912B01A7
:103A30000E94B9230E9494220E9488260E94F425A5
:103A400080E090E00E94F21780E090E00C9408186B
:103A50000E94D7220C94101D0E945422E92FE29557
:103A6000EF70F0E03297EE30F105B8F4E055FF4F1B
:103A70000C94852E803F59F018F4803E70F407C0F6
:103A8000843F59F404C0803E10F0813F31F481E05E
:103A9000089593FB882780F9089580E00895CF93D7
:103AA000DF9300D000D01F92CDB7DEB70F900F90FC
:103AB0000F900F900F90DF91CF910895CF93DF93E8
:103AC00000D000D000D0CDB7DEB726960FB6F89460
:103AD000DEBF0FBECDBFDF91CF9108951F93CF936F
:103AE000DF93C091450216E080914602C81799F015
:103AF000D0E01C9FF0011D9FF00D1124E95BFD4FEC
:103B00004081518162817381848195810E945E1D13
:103B10002196C770E9CFDF91CF911F910895409111
:103B20007702509178026091790270917A028091C7
:103B30007B0290917C020C945E1DCF9380917C025D
:103B400082958F7009F05FC080917902882309F413
:103B50005AC020914502A09146026091770270916F
:103B6000780280917A0290917B0231E06F3F09F0F8
:103B700030E0B32FC6E02A1709F445C0009721F0C2
:103B80007F3F21F44B2F03C041E001C040E030E013
:103B900040FD35C0C29FF001C39FF00D1124E95BC9
:103BA000FD4F418174132BC04081641328C04281B2
:103BB000411125C0438154814817590710F44150E1
:103BC0005109481B590B483C5105C8F480917C02AF
:103BD0008F70806180937C0286E0829FF001839FDA
:103BE000F00D1124E45BFD4F80818F708061808334
:103BF00087E792E00E94E41CCF910C946E1D2F5F2A
:103C00003F4F2770B8CFCF910895CF92DF92EF92B8
:103C1000FF920F931F93CF93DF93CDB7DEB76297D9
:103C20000FB6F894DEBF0FBECDBF8C0185E0F80162
:103C3000DE011D9601900D928A95E1F7D8014C9115
:103C400011965C91119712966C9112971396ED90C4
:103C5000FC90149770917702E091780220917A029B
:103C600030917B022115310531F0EF3F31F481E0D5
:103C70007F3F19F403C081E001C080E0B82FB1702C
:103C8000CB2E80FD6CC1D0907902DD2009F4F5C007
:103C9000F0917C02E216F30638F0C701821B930B09
:103CA000883C910548F09BC0209530952E0D3F1D16
:103CB000283C310508F093C08F2F807F09F052C057
:103CC000E51314C0741312C0D62E61110FC0FF701B
:103CD000F061F0937C020E948F1D87E792E00E94C2
:103CE000E41C80917C02F80185836CC1EF2831F0DF
:103CF0005F3F31F481E04F3F19F403C081E001C020
:103D000080E080FD03C081E0862701C080E0F82FBD
:103D1000F170FF2E80FF1CC0809145022091460269
:103D200036E0821709F428C190E0389FF001399FEE
:103D3000F00D1124E95BFD4F7181571306C07081AE
:103D4000471303C07281671303C001968770E9CFE0
:103D5000D62E662309F436C180917C02816080935F
:103D60007C0253C0E51308C0741306C0611104C07F
:103D7000D8011596FC93AEC04D875E878D859E85D4
:103D80006A8B0E942C1D6A89882329F1D62E66230E
:103D900011F120917C02822F82958F7090E0029722
:103DA0000CF460C0809177029091780298878F839D
:103DB0001986FB86EA862C87CE01079651C0E51747
:103DC00031F14D875E878D859E856A8B0E942C1D03
:103DD0006A8981112EC0C8010E94E41CA4C08F2FE3
:103DE000807F69F77E2DF98AE88A89890E944F1DB4
:103DF00087E792E00E94E41CE7E7F2E086E0DF015B
:103E00001D928A95E9F70E948F1DD12CDBC0741397
:103E1000D8CF6111D6CFD8011596FC93C8010E9466
:103E2000E41CE7E7F2E086E0DF011D928A95E9F7FE
:103E3000C9C0D62E662379F220917C02822F82950A
:103E40008F7090E0029774F08091770290917802E1
:103E50009A8389831B82FD82EC822E83CE01019698
:103E60000E94E41C86E0F801A7E7B2E001900D9201
:103E70008A95E1F70E949D1D6FC0E216F30628F0B7
:103E8000C701821B930B9C0104C0209530952E0D19
:103E90003F1D283C310508F052C0D62E662309F498
:103EA0009ACFE5132CC074132AC080917C0280FD48
:103EB0001DC0982F92959F70C9F0D80115968C93CC
:103EC00015979F3039F09F5F9295907F8F70892B67
:103ED00015968C93C8010E94E41C86E0F801A7E7C0
:103EE000B2E001900D928A95E1F736C086E0F801C4
:103EF000A7E7B2E001900D928A95E1F763C04D8784
:103F00005E878D859E850E942C1D882379F086E032
:103F1000F801A7E7B2E001900D928A95E1F70E94BF
:103F20009D1D0E948F1DDD24D3944CC080917C0286
:103F3000816080937C02C8010E94E41C43C07E2DF6
:103F4000F98AE88A89890E944F1DE7E7F2E086E056
:103F5000DF011D928A95E9F70E948F1D33C0662309
:103F600009F439CF4D875E878D859E850E942C1D73
:103F7000882309F430CFCBCF4D875E878D859E8512
:103F80000E945422292F22952F7030E022303105D3
:103F90002CF49F7041F0811106C00CC02430310513
:103FA0002CF49F7049F4805E883020F0C8010E9494
:103FB000E41CCF2CDC2C06C0D80115969C91907F78
:103FC00091F7F8CF8D2D62960FB6F894DEBF0FBE35
:103FD000CDBFDF91CF911F910F91FF90EF90DF90B8
:103FE000CF9008951F93CF93DF93CDB7DEB72C9773
:103FF0000FB6F894DEBF0FBECDBF4F8358876987D9
:104000007A878B879C87CE0107960E94051E88239E
:10401000C1F02F8138858A859B85892B31F03F3F00
:1040200011F080E003C02F3FE1F781E0811147C02C
:104030004F81588569857A858B859C850E945E1D98
:104040003EC086E0FE013796DE01119601900D928A
:104050008A95E1F7FF81E8854A855B854115510521
:1040600031F0EF3F31F481E0FF3F19F403C081E00C
:1040700001C080E080FD23C02091460230E0C901EC
:104080000196877099276091450270E0861797071F
:10409000F1F1F983EA835D834C8396E0929FD0012E
:1040A000939FB00D1124A95BBD4FFE013196019085
:1040B0000D929A95E1F7809346020E946E1D16E0DC
:1040C0008091450290914602891779F1189FC001AD
:1040D0001124895B9D4F0E94051E882331F1E091D8
:1040E00045021E9FF0011124E95BFD4F4081518183
:1040F00062817381848195810E945E1D8091450259
:1041000090E001968770992780934502D9CF0E944D
:10411000281D1092460210924502E7E7F2E086E081
:10412000DF011D928A95E9F7CACF2C960FB6F89455
:10413000DEBF0FBECDBFDF91CF911F910895EF92EB
:10414000FF920F931F93CF93DF939C01009709F485
:1041500071C0F12CEE24E394E9012196F9018491D8
:10416000843740F4843008F056C0813081F08230CA
:1041700021F160C0853709F449C0C0F19CE7980F70
:10418000903708F057C08F770E94EB1946C089011D
:104190000E5F1F4FFE01849190E2980F983050F40B
:1041A0008770FE2D01C0FF0F8A95EAF78F2F0E94BE
:1041B000EA2215C00E940E1914C089010E5F1F4F1C
:1041C000FE01849190E2980F983068F48770FE2D7C
:1041D00001C0FF0F8A95EAF78F2F0E94F0220E94FC
:1041E0009422E8011AC00E94EB19FBCF2E5F3F4FCB
:1041F000FE01C491CC2341F08FE99FE00197F1F7D4
:1042000000C00000C150F6CFE90107C0FE01F490E4
:10421000E901229602C00E940E198F2D882341F0D9
:10422000EFE9FFE03197F1F700C000008150F6CFD1
:104230009E0192CFDF91CF911F910F91FF90EF9050
:10424000089508950E942121609381027093820253
:1042500080938302909384020C94101D08950C9413
:1042600022210F931F9300918102109182022091CD
:10427000830230918402602B712B822B932B1F9130
:104280000F910C9422210F931F93009181021091A2
:104290008202209183023091840260237123822361
:1042A00093231F910F910C9422210F931F93009140
:1042B0008102109182022091830230918402602752
:1042C0007127822793271F910F910C942221089523
:1042D0000E94672160937D0270937E0280937F022B
:1042E000909380020C94101D60E070E0CB010C9460
:1042F000682141E050E060E070E004C0440F551FC9
:10430000661F771F8A95D2F7CB01BA010C946821FA
:1043100041E050E060E070E004C0440F551F661FAC
:10432000771F8A95D2F780917D0290917E02A091AD
:104330007F02B0918002482B592B6A2B7B2BCB013B
:10434000BA010C94682141E050E060E070E004C0E4
:10435000440F551F661F771F8A95D2F740955095D9
:104360006095709580917D0290917E02A0917F0270
:10437000B0918002482359236A237B23CB01BA01E1
:104380000C94682141E050E060E070E004C0440F0C
:10439000551F661F771F8A95D2F780917D029091F5
:1043A0007E02A0917F02B0918002482759276A2798
:1043B0007B27CB01BA010C9468210F931F930091C6
:1043C0007D0210917E0220917F0230918002602B4D
:1043D000712B822B932B1F910F910C9468210F93BB
:1043E0001F9300917D0210917E0220917F023091F7
:1043F000800260237123822393231F910F910C94D9
:1044000068210F931F9300917D0210917E022091ED
:104410007F023091800260277127822793271F91A6
:104420000F910C9468210895CF92DF92EF92FF9242
:104430000F931F93CF93DF93EC01C0908102D09034
:104440008202E0908302F090840280917D0290913C
:104450007E02A0917F02B0918002C82AD92AEA2A5E
:10446000FB2A0FE110E0B701A601002E04C07695EB
:104470006795579547950A94D2F740FD05C00150BE
:10448000110988F780E007C0BE01802F0E94341414
:104490000197A9F3802FDF91CF911F910F91FF908A
:1044A000EF90DF90CF900895CF93DF93EC010E94BF
:1044B0001422BE010E943414DF91CF910895CB01E4
:1044C0000E94542208958091850285958595859551
:1044D0000895809185028770089598E0899F9001E2
:1044E0001124622B609385020C94882140918502EF
:1044F0008095842380938502982F977069F450E00B
:10450000282F332727FD30954217530729F085952B
:10451000859585950C94A3210895909185029770B7
:1045200081E009F480E00895E0912A01F0912B01E7
:104530008091A9028083E0912A01F0912B01808172
:104540009091A802892B8083E0912A01F0912B01A0
:1045500080819091A702892B808390918602992374
:1045600081F0E0912A01F0912B018081892B8083D9
:1045700080912A0190912B010E943C23811110927D
:10458000860280912A0190912B010C94DC17809176
:10459000A90208959091A902982B9093A9020895D9
:1045A00080959091A90298239093A9020895109262
:1045B000A90208959091A802982B9093A8020895BB
:1045C00080959091A80298239093A8020895109244
:1045D000A80208959091A702982B9093A70208959E
:1045E00080959091A70298239093A7020895109226
:1045F000A702089580938602089510928602089576
:104600006DEE7EEF80E090E00E94292F60E082E076
:1046100090E00E94172F60E083E090E00E94172F47
:1046200060E084E090E00E94172F60E085E090E079
:104630000C94172F6FEF7FEF80E090E00C94292F00
:1046400080E090E00E94012F21E08D3E9E4F09F016
:1046500020E0822F089582E090E00C94F92E83E010
:1046600090E00C94F92E84E090E00C94F92E682FE1
:1046700084E090E00C94172F20E030E040E0FC0153
:10468000E20FF31F518151114F5F2F5F3F4F2F31C9
:104690003105A9F7842F089520E030E04FEFFC01A9
:1046A000E20FF31F5281561799F04F3F19F4511141
:1046B00001C0422F2F5F3F4F2E31310581F74F3F11
:1046C00039F0FC01E40FF11D47FDFA95628308956E
:1046D000089520E030E0FC01E20FF31F4281461311
:1046E00001C012822F5F3F4F2E313105A1F708958F
:1046F000262F2695269526952F3170F4FC01E20F82
:10470000F11D677021E030E0062E01C0220F0A94EF
:10471000EAF78181822B81830895262F269526959D
:1047200026952F3178F4FC01E20FF11D677021E02E
:1047300030E0062E01C0220F0A94EAF7209581810D
:1047400028232183089520913C01222329F02091E0
:104750008C0427FD0C9478230C944C2320913C016D
:10476000222329F020918C0427FD0C948D230C9496
:10477000692320E030E0FC01E20FF31F11822F5F7C
:104780003F4F2F313105B9F708950C9474120895F5
:104790000895CF930E94C7230E9415170E94C82333
:1047A000C0E08C2F0E94C117892B29F4CF5FC53040
:1047B000C1F780E001C081E0CF9108950E94771297
:1047C0000E94281D0E94D0170C942F1482E084BDF3
:1047D00093E095BD9AEF97BD80936E0008952FB733
:1047E000F8948091880490918904A0918A04B091F2
:1047F0008B042FBF0895CF92DF92EF92FF920F9319
:104800001F932FB7F89440918804509189046091C8
:104810008A0470918B042FBF6A017B01EE24FF2470
:104820008C0120E030E0C016D106E206F30610F459
:1048300041505109481B590BCA011F910F91FF901C
:10484000EF90DF90CF90089578941F920F920FB65B
:104850000F9211248F939F93AF93BF9380918804FD
:1048600090918904A0918A04B0918B040196A11DB6
:10487000B11D8093880490938904A0938A04B09317
:104880008B04BF91AF919F918F910F900FBE0F90AE
:104890001F9018950E94602BF8942FEF87EA91E6FD
:1048A000215080409040E1F700C0000087E090EB8D
:1048B000DC0180939B0490939C04A0939D04B0938F
:1048C0009E042CE088E190E00FB6F894A8958093C0
:1048D00060000FBE20936000FFCF0E942023811153
:1048E00002C00E9400230E942B238093AA020E94F0
:1048F000332390E090938D0480938C040E942F23A7
:10490000682F70E080E090E00C942F218091AD0240
:1049100080FF0BC060912F0185E0689FB0011124DA
:1049200075956795759567952AC081FF09C0609157
:104930002F0185E0689FB0011124759567951FC010
:1049400082FF07C060912F0185E0689FB0011124AC
:1049500016C04091AE024423C9F060912E01461763
:1049600088F720912F0185E0289F90011124429F14
:10497000C001439F900D112470E00E94712E603899
:10498000710540F46115710539F002C065E070E011
:10499000862F08958FE7089581E008958091AD02F4
:1049A00080FF08C060912D0170E075956795759541
:1049B000679521C081FF06C060912D0170E075955B
:1049C000679519C082FF04C060912D0170E010C08E
:1049D0008091AE028823C1F060912C018617A0F768
:1049E00090912D01989FC001112470E00E94712EBA
:1049F0006038710528F46115710521F0862F08953E
:104A00008FE7089581E0089561E070E0F4CF803F82
:104A100021F40E948624819504C0813F29F40E94DC
:104A200086248093B1020895823F21F40E94862457
:104A3000819504C0833F29F40E9486248093B002AC
:104A40000895893F19F40E94CE2405C08A3F31F4AD
:104A50000E94CE2481958093B20208958B3F21F469
:104A60000E94CE24819504C08C3F29F40E94CE245C
:104A70008093B3020895843F21F48091AF02816056
:104A800017C0853F21F48091AF02826011C0863F3C
:104A900021F48091AF0284600BC0873F21F48091A4
:104AA000AF02886005C0883F31F48091AF02806119
:104AB0008093AF0208958D3F21F48091AD02816013
:104AC0000BC08E3F21F48091AD02826005C08F3F04
:104AD00029F48091AD0284608093AD020895803FF7
:104AE00039F48091B10287FF6CC01092B10269C0A5
:104AF000813F29F48091B1021816BCF362C09091F5
:104B0000B002823F29F497FF5CC01092B00259C0F6
:104B1000833F19F41916CCF354C0893F41F48091B6
:104B2000B20218160CF04DC01092B2024AC08A3F71
:104B300029F48091B20287FF44C0F6CF8B3F39F44D
:104B40008091B30287FF3DC01092B3023AC08C3F00
:104B500029F48091B3021816BCF333C0843F21F4CA
:104B60008091AF028E7F17C0853F21F48091AF0204
:104B70008D7F11C0863F21F48091AF028B7F0BC0E7
:104B8000873F21F48091AF02877F05C0883F31F4D1
:104B90008091AF028F7E8093AF0213C08D3F21F4CE
:104BA0008091AD028E7F0BC08E3F21F48091AD02CB
:104BB0008D7F05C08F3F29F48091AD028B7F80935C
:104BC000AD028091B00281110EC08091B1028111BD
:104BD0000AC08091B202811106C08091B302811196
:104BE00002C01092AE0208958FEA92E00E94E71789
:104BF0000E94EF239093AC028093AB0208951F9321
:104C0000CF93DF938091AB029091AC020E94FB2383
:104C10004091AE02442321F02091300130E006C0E3
:104C2000209131015AE0259F9001112482179307AA
:104C300008F46AC08091B0021091B102D091B20222
:104C4000C091B302811107C0111105C0D11103C079
:104C5000CC2309F459C04F3F19F04F5F4093AE0287
:104C6000181624F40E9486248093B0028091B0022A
:104C700087FF05C00E94862481958093B00211169B
:104C800024F40E9486248093B1028091B10287FFB0
:104C900005C00E94862481958093B1022091B002C4
:104CA000222379F04091B102442359F055EB2503BA
:104CB000900111243093B0024503C0011124909358
:104CC000B1021D1624F40E94CE248093B20280917A
:104CD000B20287FF05C00E94CE2481958093B20264
:104CE0001C1624F40E94CE248093B3028091B30258
:104CF00087FF05C00E94CE2481958093B302DF9187
:104D0000CF911F910C94F425DF91CF911F910895BD
:104D1000EFEAF2E085E0DF011D928A95E9F7109253
:104D2000AE021092AD0208958091D40208950F93BF
:104D30001F93CF93DF9300D01F92CDB7DEB78C01C6
:104D40000E946829823011F0843019F583E089834C
:104D50001B830A838093E9008FEF9091E8008150D4
:104D600095FD06C095ED9A95F1F700008111F5CFFC
:104D70008091E80085FF0DC040E050E063E070E006
:104D8000CE0101960E9485298091E8008E7780935C
:104D9000E8000F900F900F90DF91CF911F910F912E
:104DA0000895CF93DF9300D01F92CDB7DEB7209147
:104DB0009204243031F522E02983805891099B83A5
:104DC0008A8383E08093E9008FEF9091E80081501F
:104DD00095FD06C095ED9A95F1F700008111F5CF8C
:104DE0008091E80085FF0DC040E050E063E070E096
:104DF000CE0101960E9485298091E8008E778093EC
:104E0000E8000F900F900F90DF91CF910895CF930E
:104E1000DF93EC010E946829823011F08430F9F4AC
:104E200082E08093E9008FEF9091E800815095FD3A
:104E300006C095ED9A95F1F700008111F5CF8091AC
:104E4000E80085FF0CC040E050E065E070E0CE0176
:104E50000E9485298091E8008E778093E800DF9199
:104E6000CF910895CF93DF93EC010E94682982309F
:104E700019F0843009F047C080913C018823E1F0AB
:104E800080918C0487FF18C086E08093E9008FEF43
:104E90009091E800815095FD06C095E19A95F1F753
:104EA00000008111F5CF8091E80085FF2CC040E023
:104EB00050E060E270E017C081E08093E9008FEF7E
:104EC0009091E800815095FD06C095ED9A95F1F717
:104ED00000008111F5CF8091E80085FF14C040E00B
:104EE00050E068E070E0CE010E9485298091E800E2
:104EF0008E778093E80080E2FE01A4EBB2E001909F
:104F00000D928A95E1F7DF91CF910895CF936032AA
:104F100029F520919204243009F52091E9002F70A1
:104F20003091EC0030FF02C030E801C030E0C32F08
:104F3000C22B24E02093E9002091E80020FF0BC061
:104F400040E050E060E270E00E9485298091E80036
:104F50008E778093E800CF70C093E900CF910895D9
:104F600080919104811109C00E94602B0E94BD2B89
:104F70008091E20084608093E20008951092910491
:104F80000895089508950C94DE2342E061EC81E0D9
:104F90000E94DA2A42E061EC82E00E94DA2A42E0D2
:104FA00061EC83E00E94DA2A42E261EC84E00E9434
:104FB000DA2A42E260EC85E00E94DA2A42E261EC01
:104FC00086E00C94DA2A80919404833009F455C069
:104FD00030F4813071F0823009F48EC008958A3047
:104FE00009F47AC08B3009F460C0893009F09CC0A4
:104FF00020C080919304813A09F096C08091E80026
:10500000877F8093E8008091970490919804892B82
:1050100021F060E080E090E003C060E284EB92E089
:1050200070E00E94172A8091E8008B778093E80057
:10503000089580919304813209F076C0809197049D
:1050400090919804009719F0049709F06DC0809131
:10505000E800877F8093E8008091E80082FD05C02A
:10506000809192048111F8CF5FC08091F10080930C
:10507000D4028091E8008B7753C080919304813AE9
:1050800009F052C08091970490919804892B09F0FF
:105090004BC08091E800877F8093E8008091E80012
:1050A00080FFFCCF80913C0136C080919304813217
:1050B000D9F58091970490919804892BA9F5809156
:1050C000E800877F8093E8000E940F2B8091950471
:1050D00080933C010C94281D80919304813221F52A
:1050E0008091E800877F8093E8000E940F2B8091D9
:1050F00096048093D502089580919304813AA1F497
:105100008091E800877F8093E8008091E80080FF2D
:10511000FCCF8091D5028093F1008091E8008E77DA
:105120008093E8000C940F2B08951F93CF93DF9387
:10513000CDB7DEB7A0970FB6F894DEBF0FBECDBFD8
:1051400084B7877F84BF88E10FB6F89480936000AE
:10515000109260000FBE80E88093610010926100A1
:105160000E941F180E94602B0E94BD2B8091E200BC
:1051700084608093E20078940E94402E0E9421185F
:1051800082E391E00E94CB1715E080919204853074
:1051900069F40E94C523809190048823B1F30E9492
:1051A000C923882391F30E946F29EFCF0E9427180B
:1051B00080919204843049F71093E9008091E800CF
:1051C00082FFE3CF8091E80085FF0AC040E050E015
:1051D00060E270E0CE0101960E94CE2991E001C00C
:1051E00090E08091E8008B778093E800992369F242
:1051F00060E2CE0101960E94FD10C7CF292F332710
:1052000023303105A9F06CF42130310509F442C096
:105210002230310509F043C08DE890E026EB36E0FE
:1052200042C021323105C9F02232310519F137C0AF
:1052300099278130910541F08230910541F0892B09
:1052400071F5E2EBF6E005C0E2EAF6E002C0E2E961
:10525000F6E0849190E09F0126C065307105F8F476
:10526000FB01EE0FFF1FE553FE4F2081318189E0E6
:1052700090E019C06530710590F4FB01EE0FFF1F3F
:10528000EF53FE4F20813181FB01E454FE4F8081BA
:1052900090E009C082E190E023E437E004C080E0C0
:1052A00090E020E030E0FA013183208308950895F2
:1052B000CF93C82F0E945729C093D602CF9108954B
:1052C00080919204843011F482E0089581E0089581
:1052D0008091D602811102C00C946029089580E16A
:1052E00089BD82E189BD09B400FEFDCF8091D8005F
:1052F0008F7D8093D8008091E00082608093E000F1
:105300008091E00081FDFCCF0895CF92DF92EF9273
:10531000FF920F931F93CF93DF937C018B01EA01E0
:105320000E94302B811131C0209731F08881998102
:10533000081B190BE80EF91EC12CD12C0115110503
:1053400019F18091E80085FD14C08091E8008E7706
:105350008093E800209741F0888199818C0D9D1DF4
:105360009983888385E011C00E94302B882331F314
:105370000CC0F70181917F018093F1000150110968
:10538000FFEFCF1ADF0ADACF80E0DF91CF911F91D4
:105390000F91FF90EF90DF90CF900895CF92DF9222
:1053A000EF92FF920F931F93CF93DF937C018B01BA
:1053B000EA010E94302B811131C0209731F08881A1
:1053C0009981081B190BE80EF91EC12CD12C01156F
:1053D000110519F18091E80085FD14C08091E80065
:1053E0008B778093E800209741F0888199818C0D1C
:1053F0009D1D9983888385E011C00E94302B8823EE
:1054000031F30CC08091F100F70181937F010150CD
:105410001109FFEFCF1ADF0ADACF80E0DF91CF91D9
:105420001F910F91FF90EF90DF90CF900895209102
:10543000990430919A042617370748F061157105D1
:1054400039F42091E8002E772093E80001C0B901DB
:10545000FC0120E061157105B9F180919204882367
:1054600009F440C0853009F43FC08091E80083FD15
:105470003DC08091E80082FF06C08091E80082FF75
:1054800026C080E008958091E80080FFE3CF20915E
:10549000F3008091F20090E0922B6115710551F0BC
:1054A0008830910538F421912093F1006150710901
:1054B0000196F3CF21E0089709F020E08091E80001
:1054C0008E778093E800C6CF2111C7CFD6CF8091C9
:1054D0009204882339F0853039F08091E80083FF09
:1054E000CCCF04C082E0089583E0089581E0089560
:1054F0002091990430919A042617370748F06115D6
:10550000710539F42091E8002E772093E80001C05E
:10551000B901FC0120E061157105C1F1809192048F
:10552000882309F441C0853009F440C08091E80027
:1055300083FD3EC08091E80082FF06C08091E800B4
:1055400082FF27C080E008958091E80080FFE3CFCC
:105550002091F3008091F20090E0922B611571058B
:1055600059F08830910540F424912093F100319650
:10557000615071090196F2CF21E0089709F020E00F
:105580008091E8008E778093E800C5CF2111C6CFC7
:10559000D5CF80919204882339F0853039F08091FD
:1055A000E80083FFCBCF04C082E0089583E0089534
:1055B00081E00895982F973058F59093E900981757
:1055C00039F07091EC002091ED005091F00003C093
:1055D000242F762F50E021FF19C03091EB003E7F41
:1055E0003093EB003091ED003D7F3093ED00309132
:1055F000EB0031603093EB007093EC002093ED00F2
:105600005093F0002091EE0027FF07C09F5FD3CF9B
:105610008F708093E90081E0089580E00895809183
:10562000930487FD05C08091E80080FF0EC012C082
:105630008091E80082FD05C0809192048111F8CF2D
:1056400008958091E8008B7708C0809192048111C1
:10565000EACF08958091E8008E778093E80008955E
:105660008091E4009091E50045E62091EC0020FF58
:1056700021C02091E80020FD21C020919204222326
:1056800089F0253089F02091EB0025FD0FC0209195
:10569000E4003091E5002817390739F3415041F013
:1056A000C901E3CF82E0089583E0089581E0089581
:1056B00084E008952091E80022FFDFCF80E0089584
:1056C0000E94CE2B0E94D62BE0EEF0E0808181601C
:1056D0008083E8EDF0E080818F77808319BCA7EDAF
:1056E000B0E08C918E7F8C9380818F7E808310922E
:1056F000910408950F931F93CF93DF930E94CE2BB5
:105700000E94D62BC8EDD0E088818F77888388816E
:105710008068888388818F7D888319BC1092920469
:1057200010928E041092900410928F0400EE10E0FC
:10573000F80180818B7F808388818160888342E04B
:1057400060E080E00E94DA2AE1EEF0E080818E7F66
:105750008083E2EEF0E080818160808380818860D8
:105760008083F80180818E7F808388818061888337
:10577000DF91CF911F910F910895E8EDF0E08081C6
:105780008F7E8083E7EDF0E080818160808384E01C
:1057900082BF81E0809391040C947A2BE8EDF0E0D5
:1057A00080818E7F80831092E20008951092DA004B
:1057B0001092E10008951F920F920FB60F921124DC
:1057C0002F933F934F935F936F937F938F939F9309
:1057D000AF93BF93EF93FF938091E10082FF0BC0E3
:1057E0008091E20082FF07C08091E1008B7F80936F
:1057F000E1000E943F2E8091DA0080FF1FC080915F
:10580000D80080FF1BC08091DA008E7F8093DA0081
:105810008091D90080FF0DC080E189BD82E189BD02
:1058200009B400FEFDCF81E0809392040E94B0276E
:1058300005C019BC109292040E94BE278091E1001D
:1058400080FF19C08091E20080FF15C08091E200C6
:105850008E7F8093E2008091E20080618093E2007D
:105860008091D80080628093D80019BC85E0809335
:1058700092040E94C2278091E10084FF30C0809191
:10588000E20084FF2CC080E189BD82E189BD09B4BA
:1058900000FEFDCF8091D8008F7D8093D80080914D
:1058A000E1008F7E8093E1008091E2008F7E809303
:1058B000E2008091E20081608093E20080918E049A
:1058C000882311F084E007C08091E30087FF02C0C5
:1058D00083E001C081E0809392040E94C3278091FD
:1058E000E10083FF29C08091E20083FF25C0809101
:1058F000E100877F8093E10082E080939204109220
:105900008E048091E1008E7F8093E1008091E2001F
:105910008E7F8093E2008091E20080618093E200BC
:1059200042E060E080E00E94DA2A8091F000886026
:105930008093F0000E94C127FF91EF91BF91AF913A
:105940009F918F917F916F915F914F913F912F9197
:105950000F900FBE0F901F9018951F920F920FB6C9
:105960000F9211242F933F934F935F936F937F93E5
:105970008F939F93AF93BF93CF93EF93FF93C09178
:10598000E900CF708091EC001092E9008091F00066
:10599000877F8093F00078940E94E92C1092E900B0
:1059A0008091F00088608093F000C093E900FF913F
:1059B000EF91CF91BF91AF919F918F917F916F9117
:1059C0005F914F913F912F910F900FBE0F901F90BD
:1059D00018951F93CF93DF93CDB7DEB7AA970FB675
:1059E000F894DEBF0FBECDBFE3E9F4E08091F10093
:1059F000819324E0EB39F207C9F70E94E3278091F5
:105A0000E80083FF24C12091930430919404832FF4
:105A100090E08A30910508F01AC1FC01E254FF4F72
:105A20000C94852E203821F0223809F010C108C0CE
:105A300080918F0490919004992389F082600FC027
:105A4000809197048F70873008F001C18093E9003E
:105A50008091EB0085FB882780F91092E9009091F6
:105A6000E800977F9093E8008093F1001092F10096
:105A7000CCC0822F8D7F09F0EAC0222319F022309A
:105A800061F0E5C080919504813009F0E0C03330C9
:105A900009F080E0809390042AC0809195048111E0
:105AA00026C0209197042F708FEF820F863008F068
:105AB000CEC02093E9008091EB0080FF18C0809158
:105AC000EB00333011F4806210C080618093EB00F2
:105AD00081E090E001C0880F2A95EAF78093EA0000
